:100000000C9468000C9490000C9490000C94900058
:100010000C9490000C9490000C9490000C94900020
:100020000C9490000C9490000C9490000C94900010
:100030000C9490000C9490000C9490000C94900000
:100040000C94EC010C9490000C9405040C94410465
:100050000C9490000C9490000C9490000C949000E0
:100060000C9490000C949000000000070002010026
:100070000003040600000000000000000102040864
:100080001020408001020408102001020408102002
:10009000040404040404040402020202020203032E
:1000A0000303030300000000250028002B000000CC
:1000B0000000240027002A007C3C3E5E2B3D3F2FA1
:1000C0005B5D3B2C2A225C00E401FC040609E8018C
:1000D00011241FBECFEFD8E0DEBFCDBF11E0A0E0FE
:1000E000B1E0E8E9F4E302C005900D92AA3DB10742
:1000F000D9F715E0AAEDB1E001C01D92AA30B10711
:10010000E1F710E0CEECD0E004C02297FE010E949F
:100110003B1AC83CD107C9F70E944C050C94AD1995
:100120000C940000DB010D900020E9F7AD01415077
:100130005109461B570BDC01ED91FC910280F381C4
:10014000E02D099440E659E060E070E08DE092E037
:100150000E947C046AE071E08DE092E00E948105DB
:1001600061E08AE00E94FD0264E084EB92E00E947C
:100170006907811106C062E271E08DE092E00C94A3
:10018000A00569E371E08DE092E00E94A00561E0C6
:1001900082E00E94FD0260E082E00C943503EF9261
:1001A000FF920F931F93CF93DF93CDB7DEB76B977B
:1001B0000FB6F894DEBF0FBECDBF8DE092E00E9477
:1001C0006C03181619060CF0F2C08DE092E00E9444
:1001D0009B0390930302809302020A9709F0E7C001
:1001E0001092F6011092F5012DC08DE092E00E9470
:1001F0006C031816190634F58DE092E00E949B03FB
:1002000090930302809302028A30910551F4109278
:1002100001028091F5019091F6010A9709F0B5C0AD
:1002200018C08D30910599F32091F5013091F601B8
:10023000F901E950FE4F80832F5F3F4F3093F60165
:100240002093F5018091F5019091F6010A976CF2E7
:10025000DECF6EE471E08DE092E00E94810567EFF1
:1002600071E08DE092E00E94A00521E04CE551E0B4
:1002700064EB72E0EE24E394F12CEC0EFD1EC7015A
:100280000E9480088B819C819093DD018093DC012A
:100290000D811E812F8138850093DE011093DF01CF
:1002A0002093E0013093E10109851A852B853C8577
:1002B0000093E2011093E3012093E4013093E50100
:1002C0008DE0FE013D96A6EEB1E001900D928A957B
:1002D000E1F78A8D9B8D9093F4018093F301C70120
:1002E0000E94E7068AED91E00E945C07882309F4EA
:1002F00042C068E671E08DE092E00E94A0058701AF
:1003000033C024E130E0A8016AE08AED91E00E9468
:10031000E405800F911FFC01108265E771E08DE01C
:1003200092E00E949200B8018DE092E00E9492005B
:100330004AE050E0B80187EF91E00E94C8190097A9
:1003400039F462E871E08DE092E00E94920019C0F9
:1003500062E971E08DE092E00E9492006FE871E046
:100360008DE092E00E9492008AED91E00E941907D0
:10037000892B39F606C06DE971E08DE092E00E94AC
:10038000A0058AED91E00E944A071092F6011092B2
:10039000F50161E082E00E9435036CED75E080E0DC
:1003A00090E00E94720260E082E00E9435036B964A
:1003B0000FB6F894DEBF0FBECDBFDF91CF911F9176
:1003C0000F91FF90EF9008958AED91E00C94D40680
:1003D0008AED91E00C94E7061F920F920FB60F92F0
:1003E00011242F933F938F939F93AF93BF9380914B
:1003F000040290910502A0910602B091070230918B
:100400000C02232F2D5F2D3720F40196A11DB11D65
:1004100005C0232F2A570296A11DB11D20930C025F
:100420008093040290930502A0930602B093070202
:100430008091080290910902A0910A02B0910B02EA
:100440000196A11DB11D8093080290930902A0930B
:100450000A02B0930B02BF91AF919F918F913F9190
:100460002F910F900FBE0F901F9018950F931F9311
:100470008FB7F894009104021091050220910602B2
:10048000309107028FBFB801C9011F910F910895E4
:100490000F931F939FB7F8940091080210910902DF
:1004A00020910A0230910B0286B5A89B06C08F3FAF
:1004B00021F00F5F1F4F2F4F3F4F9FBF322F212F34
:1004C000102F0027080F111D211D311D42E0000FC4
:1004D000111F221F331F4A95D1F7B801C9011F917F
:1004E0000F910895CF92DF92EF92FF92CF93DF9317
:1004F0006B017C010E944802EB010EC00E94480281
:100500006C1B7D0B683E734038F081E0C81AD1083F
:10051000E108F108C851DC4FC114D104E104F10431
:1005200069F7DF91CF91FF90EF90DF90CF90089522
:10053000789484B5826084BD84B5816084BD85B5BE
:10054000826085BD85B5816085BDEEE6F0E0808185
:1005500081608083E1E8F0E01082808182608083A6
:10056000808181608083E0E8F0E080818160808329
:10057000E1EBF0E0808184608083E0EBF0E080815B
:1005800081608083EAE7F0E08081846080838081FD
:1005900082608083808181608083808180688083A5
:1005A0001092C1000895833069F028F48130A1F0E1
:1005B000823011F514C08630B1F08730C1F084303C
:1005C000D9F404C0809180008F7703C080918000AF
:1005D0008F7D80938000089584B58F7702C084B5A5
:1005E0008F7D84BD08958091B0008F7703C0809186
:1005F000B0008F7D8093B0000895CF93DF9390E09B
:10060000FC01E458FF4F4491FC01E057FF4F8491F7
:10061000882341F190E0880F991FFC01E255FF4FBC
:1006200025913491D9018C559F4FFC01859194916E
:10063000C82FD92F9FB7F8948C91611106C04095AF
:1006400084238C938881842308C0623041F4242F52
:10065000209582238C938881842B888302C0842BED
:100660008C939FBFDF91CF9108950F931F93CF93EA
:10067000DF931F92CDB7DEB7282F30E0F901E8599C
:10068000FF4F8491F901E458FF4F1491F901E057AD
:10069000FF4F04910023D1F0882321F069830E9449
:1006A000D3026981E02FF0E0EE0FFF1FEC55FF4F02
:1006B00085919491DC019FB7F8948C91611103C0EE
:1006C0001095812301C0812B8C939FBF0F90DF91E8
:1006D000CF911F910F910895FC0184859585FC01B0
:1006E000E05CFF4F20813181FC01EE5BFF4F808198
:1006F0009181281B390B2F733327C9010895FC0101
:1007000084859585FC01E05CFF4F40815181FC01AF
:10071000EE5BFF4F208131814217530741F001907A
:10072000F081E02DE80FF91F208130E002C02FEFAB
:100730003FEFC9010895FC0184859585FC01E05CCB
:10074000FF4F40815181FC01EE5BFF4F20813181E1
:100750004217530771F0A081B181A80FB91F2C91E6
:100760008081918101968F7399279183808330E0F6
:1007700002C02FEF3FEFC9010895FC0186859785E0
:10078000FC01E05CFF4FDC01AE5BBF4F408151815B
:100790002D913C91119742175307C1F70895CF93BC
:1007A000DF93FC0126853785D901A05CBF4F8D9171
:1007B0009C91119701968F739927E901CE5BDF4FCA
:1007C0004881598184179507D9F30D90BC91A02DCC
:1007D000A20FB31F6C93A685B785A05CBF4F11967F
:1007E0009C938E93A689B7892C9181E090E0058C2B
:1007F00002C0880F991F0A94E2F7282B2C9381E0FE
:1008000090E0DF91CF91089508951F920F920FB657
:100810000F9211242F933F934F938F939F93EF93B6
:10082000FF934091C6008091B0029091B102019671
:100830008F7399272091B2023091B30282179307E8
:1008400059F0E091B002F091B102E059FD4F4083C0
:100850009093B1028093B002FF91EF919F918F919D
:100860004F913F912F910F900FBE0F901F901895B1
:100870008DE092E00E946C03892B11F00C9404042B
:1008800008951F920F920FB60F9211242F933F934A
:100890008F939F93EF93FF9320916C0230916D02A1
:1008A00080916E0290916F022817390731F4809180
:1008B000C1008F7D8093C10014C0E0916E02F09161
:1008C0006F02E45DFD4F208180916E0290916F0276
:1008D00001968F73992790936F0280936E022093F5
:1008E000C600FF91EF919F918F913F912F910F90B3
:1008F0000FBE0F901F901895CF92DF92EF92FF924C
:10090000CF93DF93EC016A017B01411581EE58071B
:1009100061057105F9F0EC89FD8981E090E00E8CAC
:1009200002C0880F991F0A94E2F7808360E079E0A3
:100930008DE390E0A70196010E94F0192150310942
:10094000410951095695479537952795211580E11D
:10095000380798F0EC89FD89108260E874E88EE130
:1009600090E0A70196010E94F01921503109410938
:1009700051095695479537952795E889F989308328
:10098000EA89FB892083EE89FF89408181E090E03C
:100990009C010A8C02C0220F331F0A94E2F7422BFB
:1009A0004083EE89FF8940819C010B8C02C0220F9D
:1009B000331F0A94E2F7422B4083EE89FF8940817E
:1009C0009C010C8C02C0220F331F0A94E2F7422BC9
:1009D0004083EE89FF8920810D8C02C0880F991F0A
:1009E0000A94E2F7809582238083DF91CF91FF9074
:1009F000EF90DF90CF9008951092100210920F02A6
:100A000088EE93E0A0E0B0E0809311029093120290
:100A1000A0931302B093140284EB91E090930E0222
:100A200080930D0280E792E090931A02809319025E
:100A30008CE292E090931C0280931B0285EC90E084
:100A400090931E0280931D0284EC90E0909320020C
:100A500080931F0280EC90E0909322028093210209
:100A600081EC90E0909324028093230286EC90E046
:100A7000909326028093250284E08093270283E0EE
:100A80008093280287E08093290285E080932A02E0
:100A900081E080932B0208950E9498020E94A20098
:100AA000C8E3D4E00E94CF002097E1F30E9438040D
:100AB000F9CFCF92DF92EF92FF920F931F93CF93D4
:100AC000DF936C01EB017A01E60EF71E00E010E007
:100AD0000BC06991D601ED91FC910190F081E02D60
:100AE000C6010995080F191FCE15DF0591F7C8013A
:100AF000DF91CF911F910F91FF90EF90DF90CF90FA
:100B000008950C949200DC01ED91FC910190F0812C
:100B1000E02D09940F931F93CF93DF93EC016DE0C9
:100B20000E9483058C016AE0CE010E9483059C012E
:100B3000200F311FC901DF91CF911F910F910895AF
:100B40000F931F93CF93DF93EC010E9492008C01CF
:100B5000CE010E948A059801280F391FC901DF9133
:100B6000CF911F910F9108950F931F93CF93DF9310
:100B7000EC010E943602688779878A879B87E88123
:100B8000F9810680F781E02DCE0109959C0197FF40
:100B900015C00E943602088519852A853B85601B91
:100BA000710B820B930B0C811D812E813F8160178D
:100BB00071078207930718F32FEF3FEFC901DF9109
:100BC000CF911F910F910895AF92BF92CF92DF9274
:100BD000EF92FF920F931F93CF93DF936C018A01E3
:100BE0007901C0E0D0E02115310599F0A62EBB2493
:100BF000A7FCB094C6010E94B40597FD0AC08A15EF
:100C00009B0539F0F80181938F012196CE15DF0500
:100C100089F7CE01DF91CF911F910F91FF90EF9057
:100C2000DF90CF90BF90AF900895CF93DF931F9246
:100C3000CDB7DEB76983DC01ED91FC910280F381D1
:100C4000E02D41E050E0BE016F5F7F4F09950F90AE
:100C5000DF91CF910895FC01818D928D009711F065
:100C60000C947D0F0895CF93DF93EC01898D9A8DBD
:100C7000009709F40CC0FC01138212820E94F81143
:100C80009C01E98DFA8D82819381892B31F081E07D
:100C900090E09B838A8320E030E0C901DF91CF910F
:100CA0000895CF93DF931F92CDB7DEB741E050E0B8
:100CB000BE016F5F7F4F0E94480D019719F4298193
:100CC00030E002C02FEF3FEFC9010F90DF91CF91CD
:100CD0000895FC01818D928D009711F00C945106BE
:100CE0008FEF9FEF08950F931F93CF93DF938C01A6
:100CF000FC01818D928D0097B1F00E945106EC01AC
:100D00008F3FFFEF9F0789F0F801818D928DFC01E5
:100D10004285538564857585415051096109710982
:100D20000E94E20E02C0C0E0D0E0CE01DF91CF9180
:100D30001F910F910895CF92DF92EF92FF920F9340
:100D40001F93CF93DF93EC017B016A011B821A8210
:100D500008EE13E020E030E00C831D832E833F83F8
:100D600084EC91E0998388838DE190E00E9476186D
:100D7000DC019A8F898F009771F08DE1F701019066
:100D80000D928A95E1F74CE050E0B601CE010C9649
:100D90000E94D619188EDF91CF911F910F91FF906D
:100DA000EF90DF90CF900895FC011382128248EEFD
:100DB00053E060E070E0448355836683778384EC7E
:100DC00091E091838083128E118E1486089524EC15
:100DD00031E0FC013183208308950F931F93DC01E0
:100DE0005996ED91FC915A97309729F00285138519
:100DF0002485358503C00FEF1FEF9801B801C901A5
:100E00001F910F9108950F931F93DC015996ED9157
:100E1000FC915A97309729F00389148925893689DE
:100E200003C000E010E09801B801C9011F910F91C3
:100E30000895CF92DF92EF92FF92CF93DF93EC0170
:100E4000898D9A8D892BE1F0CE010E9403076B01F9
:100E50007C01CE010E94ED06A7019601261B370BEF
:100E6000480B590BDA01C901811530E89307A10538
:100E7000B10520F08FEF9FE7A0E0B0E09C0102C039
:100E800020E030E0C901DF91CF91FF90EF90DF903B
:100E9000CF900895CF93DF93EC01898D9A8D0097C1
:100EA00041F00E94C40F898D9A8D0E9411191A8EEB
:100EB000198EDF91CF910895DC015996ED91FC9147
:100EC0005A97309721F081E09581911101C080E01F
:100ED00008950F931F93CF93DF93EC01462F61E0AA
:100EE0000E94FC09811101C012C08E01045F1F4FD6
:100EF00041E0BE01C8010E946417882351F0B80187
:100F0000CE018A960E94F80C91E081110AC090E00F
:100F100008C040E0BE01C8010E9464178823B9F3ED
:100F2000EECF892FDF91CF911F910F910895FC0192
:100F3000DB0112968D919C9113979383828386EDAA
:100F400091E09183808314968C91149784831596F5
:100F50008C911597858316964D915D916D917C913D
:100F6000199746835783608771871A964D915D91D3
:100F70006D917C911D9742875387648775871E9674
:100F80004D915D916D917C91519746875787608B0C
:100F9000718B52968C915297828B53964D915D91A5
:100FA0006D917C915697438B548B658B768B5796BE
:100FB0004D915D916D917C915A97478B508F618FC8
:100FC000728F5B968D919C915C97948F838F08951F
:100FD0004F925F926F927F928F929F92AF92BF9249
:100FE000CF92DF92EF92FF920F931F93CF93DF93F5
:100FF000CDB7DEB7C754D1090FB6F894DEBF0FBE28
:10100000CDBF6C014A013901665D7F4F5E018EE103
:10101000A80EB11CC5010E9497071C821B8286ED99
:1010200091E09A8389831E828401EE24E394F12C5B
:10103000EC0EFD1E25013AC0F80120812F3219F473
:101040000F5F1F4F33C0801B8D3008F08CE0A82E3F
:10105000B12CA501B801CE01CB960E94D619EBE3C5
:10106000F0E0EC0FFD1FEA0DFB1D1082C7010E948E
:10107000C40F21E0AE01455C5F4FB201C7010E9481
:10108000FE10811109C0F6011382128286ED91E0F3
:101090009183808315821BC00A0D1B1DC2010E9413
:1010A000C40F942D852D2701E92EF82E6FE270E0F4
:1010B000C8010E94BD19009709F0BECF081919098F
:1010C000F30111830083B201C6010E949707C60194
:1010D000C95BDF4F0FB6F894DEBF0FBECDBFDF9107
:1010E000CF911F910F91FF90EF90DF90CF90BF9025
:1010F000AF909F908F907F906F905F904F900895EA
:10110000BF92CF92DF92EF92FF920F931F93CF93F4
:10111000DF93CDB7DEB7C955D1090FB6F894DEBF5E
:101120000FBECDBF7C016A01B22E9E01285A3F4FEF
:10113000CE01CB960E94E8076A960EAD1FAD6A9766
:101140000C0D1D1DF801808181110AC0BE01655C76
:101150007F4FCE0101960E94970740ED51E03EC0BF
:1011600019A218A286ED91E09F8F8E8F1BA2219667
:101170008FAD2197811104C0C7010E94D40634C0ED
:1011800082502B2DA801823048F46EED72E0CE0122
:101190004E960E94FE1081110EC0EECFBE01655C1E
:1011A0007F4FCE014E960E94FE10882329F3CE0178
:1011B000CB960E94C40F8B2D867041F049A95AA985
:1011C0006BA97CA9CE014E960E94E20EBE01625E22
:1011D0007F4FCE0101960E949707A801BE016F5F65
:1011E0007F4FC7010E949B06C701C75ADF4F0FB64A
:1011F000F894DEBF0FBECDBFDF91CF911F910F914D
:10120000FF90EF90DF90CF90BF9008951092B902B9
:101210001092BA021092BD021092BF0282E090E0DA
:10122000A0E0B0E08093C0029093C102A093C202FC
:10123000B093C3021092D7021092E1021092E00222
:1012400086ED91E09093DF028093DE021092E3023C
:1012500008958EBD0DB407FEFDCF08958FEF0E9457
:1012600029098EB5089561E0FC0184810C94350351
:1012700060E0FC0184810C943503CF93DF93EC0193
:101280008E818823C9F08FEF8EBD4FEF04C00DB45F
:1012900007FEFDCF4EBD8F8198859C012F5F3F4F8C
:1012A00038872F838130924090F30DB407FEFDCF35
:1012B000CE010E9433091E82DF91CF9108956730DD
:1012C00028F026E1FC01258380E008958DB560FDBE
:1012D00002C0663011F48E7F01C081608DBD8CB577
:1012E0008C7F8CBD9CB562FF02C082E001C080E0B3
:1012F00066956170692B682B6CBD81E008950F9332
:101300001F93CF93DF93EB010E9436028B010E9463
:101310002E098F3F49F00E943602601B710B6C173B
:101320007D07A8F380E001C081E0DF91CF911F919C
:101330000F910895CF92DF92FF920F931F93CF9357
:10134000DF9300D000D0CDB7DEB76C01F62E298335
:101350003A834B835C830E943D09C6010E94380991
:101360006CE271E0C6010E947F098F2D80640E94AB
:10137000290908E110E05C814B813A812981DA0179
:10138000C901002E04C0B695A795979587950A9434
:10139000D2F729833A834B835C830E942909085042
:1013A000110929813A814B815C81083F8FEF180731
:1013B00031F7FF2029F0E8E0FE1621F08FEF03C09F
:1013C00085E901C087E80E94290910E00E942E09E2
:1013D000F601828787FF04C01F3F11F01F5FF6CF21
:1013E0000F900F900F900F90DF91CF911F910F9161
:1013F000FF90DF90CF900895BF92CF92DF92EF924F
:10140000FF920F931F93CF93DF93EC01B62E1B86B1
:1014100019861E821D824C830E9436028B0161E078
:101420008C810E94FD02CE010E94330960E08CE0B5
:101430000E94FD0261E08BE00E94FD0261E08DE010
:101440000E94FD0261E08AE00E94FD0261E08AE004
:101450000E94350383E58CBD8DB58E7F8DBD2AE05E
:10146000F22E8FEF0E942909FA94D9F7CE010E943B
:10147000380909C00E943602601B710B613D77403C
:1014800010F081E058C020E030E0A90160E0CE011A
:101490000E949A09F82E8A8781E0F812EBCF2AEA97
:1014A00031E040E050E068E0CE010E949A0982FFFE
:1014B00002C0FB860DC094E0F92E0E942E098A8797
:1014C000FA94D9F78A3A11F082E035C082E08B872E
:1014D0008B85823031F4C12CD12CE12C80E4F82EA4
:1014E0000DC0C12CD12C760109C00E943602601BB0
:1014F000710B613D774010F088E01DC020E030E0C6
:10150000A90167E3CE010E949A09A701960169E249
:10151000CE010E949A098A878111E7CF8B8582309C
:10152000C9F420E030E0A9016AE3CE010E949A09E3
:10153000882319F086E08D831DC00E942E09807CCF
:10154000803C11F483E08B870E942E090E942E09B3
:101550000E942E09CE010E9433096B2DCE01DF912E
:10156000CF911F910F91FF90EF90DF90CF90BF90A0
:101570000C945F09CE010E94330980E0DF91CF9186
:101580001F910F91FF90EF90DF90CF90BF90089543
:101590000F931F93CF93DF93EC010E9436028B01D0
:1015A00009C00E943602601B710B6D32714010F051
:1015B0008FE008C00E942E098A878F3F91F38E3FEB
:1015C00039F08DE08D83CE010E94330980E001C0A7
:1015D00081E0DF91CF911F910F9108958F929F929B
:1015E000AF92BF92CF92DF92EF92FF920F931F9331
:1015F000CF93DF93EC01590147010115110509F45F
:1016000075C0C801820F931F8130924008F070C0EE
:101610008E81882371F0C880D980EA80FB804C15C8
:101620005D056E057F0529F48F819885A816B9069A
:1016300018F5488359836A837B838B85833039F01F
:10164000B9E0440F551F661F771FBA95D1F79A016D
:10165000AB0161E1CE010E949A09882319F083E071
:101660008D8346C0CE010E94C80A882309F440C079
:1016700018861F8281E08E838FEF8EBD2FEF09C009
:101680000DB407FEFDCF2EBD8F81988501969887FA
:101690008F838F8198858A159B0590F3C8010197E8
:1016A000F4014FEF06C00DB407FEFDCF2EB5219318
:1016B0004EBD9F012819390928173907A0F30DB429
:1016C00007FEFDCF2EB5F401E80FF91F20838F81AF
:1016D0009885800F911F98878F832985222319F081
:1016E0008115924018F0CE010E943D0981E004C0AE
:1016F000CE010E94330980E0DF91CF911F910F91BD
:10170000FF90EF90DF90CF90BF90AF909F908F9021
:101710000895EF92FF920F931F93790100E012E07A
:1017200020E030E00E94EE0A1F910F91FF90EF90B1
:101730000895CF93DF93EC016EBD20E030E00DB44F
:1017400007FEFDCFFA01E20FF31F80818EBD0DB4BD
:1017500007FEFDCF81818EBD2E5F3F4F211582E0B8
:10176000380769F70DB407FEFDCF8FEF0E942909F6
:101770008FEF0E9429090E942E098A878F71853078
:1017800039F081E18D83CE010E94330980E001C0F0
:1017900081E0DF91CF9108950F931F93CF93DF9353
:1017A000EC018901411551056105710511F482E1D2
:1017B00038C08B85833039F089E0440F551F661F90
:1017C000771F8A95D1F79A01AB0168E1CE010E949B
:1017D0009A09882311F084E024C0A8016EEFCE019D
:1017E0000E94990B8823B9F068E572E0CE010E944F
:1017F0007F09811102C085E114C020E030E0A90119
:101800006DE0CE010E949A0981110AC00E942E0942
:10181000811106C008C0CE010E94330980E007C0D4
:1018200084E18D83F8CFCE010E94330981E0DF91FE
:10183000CF911F910F910895CF93DF93EC019C01FD
:101840002A5F3F4F41E050E060E070E08B8D9C8D5F
:101850000E94FD158823A1F04F89588D698D7A8DDE
:10186000452B462B472B71F44E815F816885798526
:101870004F8B588F698F7A8F8C8180688C8302C0E0
:1018800080E001C081E0DF91CF910895CF92DF9297
:10189000EF92FF921F93CF93DF93EC010E941C0CF9
:1018A000811102C080E04BC0EB8DFC8DCE80DF80CB
:1018B000E884F98482E0C81AD108E108F1080584B7
:1018C00004C0CC0CDD1CEE1CFF1C0A94D2F746852C
:1018D000578560897189C40ED51EE61EF71E1481D6
:1018E00081E0C81AD108E108F1080BC0C701B601B0
:1018F000610F711D811D911D0E944214882391F278
:1019000011501111F3CFEB8DFC8DC12C82E0D82E3C
:10191000E12CF12C058404C0CC0CDD1CEE1CFF1C5A
:101920000A94D2F74B895C896D897E894C0D5D1DC7
:101930006E1D7F1D4B8B5C8B6D8B7E8B81E0DF91F1
:10194000CF911F91FF90EF90DF90CF900895CF93AC
:10195000DF93EC01462F6E857F85888999890E94E7
:101960000714882341F02A8980E2289F90011124DE
:101970002A5F3C4F02C020E030E0C901DF91CF91E7
:101980000895FB012BE030E231932150E9F750E05C
:10199000A7E022C04E3241F4AA3041F158E0AAE05B
:1019A0001BC0E41303C022C028EB30E0F9012F5F15
:1019B0003F4FE491E111F5CFA517C0F04132B0F0EF
:1019C0004F37A0F4FB01E50FF11D242F21562A31DA
:1019D00008F4405240835F5FFC014191CF01411107
:1019E000D9CF81E0FB019081903209F480E0089525
:1019F0000F931F93CF93DF93EC018B018D8188238D
:101A000011F080E040C0FB0187898031B1F482E0B1
:101A10008D831F8A188E198E1A8E408D518D60E02D
:101A200070E0E5E0440F551F661F771FEA95D1F778
:101A30004B8B5C8B6D8B7E8B15C0803211F783E0F6
:101A40008D83FB01428D538D648D758D4F8B588F27
:101A5000698F7A8F9E012D5E3F4FC8010E94EA1464
:101A6000882379F21C8F0B8F81E08C831E821F826A
:101A7000188619861A861B861C861D861E861F865A
:101A8000188A198A1A8ADF91CF911F910F910895B0
:101A90002F923F924F925F926F927F928F929F927E
:101AA000AF92BF92CF92DF92EF92FF920F931F936C
:101AB000CF93DF9300D000D0CDB7DEB79C838B836C
:101AC0001A01DC0115968C91811103C02FEF3FEFB5
:101AD0000CC1EB81FC81848180FFF8CFD4C0180158
:101AE0002C183D0841015B018B819C8106969A83ED
:101AF0008983C3C0AB81BC811A96CD90DD90ED90F7
:101B0000FC901D97412C512C32014A9453944C2047
:101B10005D206E207F2015964C91159797018601C8
:101B200089E036952795179507958A95D1F75B96A5
:101B30008D919C915C97423051F4FC01628D738DC4
:101B4000848D958D600F711F821F931F4CC0DC0127
:101B500014967C907A9470224114510401F571100E
:101B60001EC0CD28CE28CF2859F4EB81FC8187896F
:101B7000908DA18DB28D86839783A087B1870FC08A
:101B8000AB81BC8116964D915D916D917C911997B9
:101B900029813A810E946814882309F497CFAB8188
:101BA000BC815B96ED91FC915C9716966D917D9151
:101BB0008D919C9119976250710981099109058451
:101BC00004C0660F771F881F991F0A94D2F70685F5
:101BD000178520893189600F711F821F931F670D40
:101BE000711D811D911D20E032E024193509340159
:101BF0002815390508F43901EB81FC81248126FD83
:101C000005C06114F2E07F0609F069C0C0900601CA
:101C1000D0900701E0900801F09009016C157D0556
:101C20008E059F0509F04DC05AC0A60CB71C12C006
:101C3000C2018A5F9C4F9C01260D371DFC01D50116
:101C400002C041914D93E217F307D9F7E81BF90B56
:101C5000AE0EBF1EAB81BC811A96CD90DD90ED908B
:101C6000FC901D97C60CD71CE11CF11CFD01C2861F
:101C7000D386E486F586861897088114910409F0C6
:101C800039CF910132C0AB81BC8153960D911D912A
:101C90002D913C9156971A96CD90DD90ED90FC9049
:101CA0001D972A01612C712C480159018C189D083F
:101CB000AE08BF0884149504A604B70408F40FCF37
:101CC00011CF750183019201AB01BC018091040326
:101CD000909105030E94EE0A8111A7CFF7CE40E054
:101CE0000E9407148111A4CFF1CEC9010F900F906B
:101CF0000F900F90DF91CF911F910F91FF90EF9078
:101D0000DF90CF90BF90AF909F908F907F906F901B
:101D10005F904F903F902F900895CF92DF92EF9277
:101D2000FF920F931F93CF93DF931F92CDB7DEB730
:101D30008C01FC018581823018F420E030E037C04E
:101D4000F801C284D384E484F58425E0F694E79412
:101D5000D794C7942A95D1F7FFE0CF22DD24EE2453
:101D6000FF2441E050E0BE016F5F7F4FC8010E9439
:101D7000480D019719F4898190E002C08FEF9FEF21
:101D80000196D9F2F8014285538564857585415ED7
:101D90005F4F6F4F7F4F42875387648775879601E8
:101DA00095E0220F331F9A95E1F72A5F3C4FC90156
:101DB0000F90DF91CF911F910F91FF90EF90DF90E7
:101DC000CF9008958F929F92AF92BF92CF92DF9261
:101DD000EF92FF920F931F93CF93DF93EC014A0191
:101DE0005B012D81222309F475C08B899C89AD8903
:101DF000BE8984179507A607B70708F46BC06CC0A7
:101E000081149104A104B10449F41E821F82188632
:101E100019861A861B861C861D865AC00A851B8554
:101E20002C853D85EB8DFC8D858590E00996B9016B
:101E3000A8014150510961097109082E04C0769525
:101E40006795579547950A94D2F7CC24CA94DC2C11
:101E50007601C80CD91CEA1CFB1C04C0F694E7945C
:101E6000D794C7948A95D2F7C416D506E606F70626
:101E700020F0012B022B032B49F44F89588D698DDB
:101E80007A8D4E835F836887798716C0C41AD50A16
:101E9000E60AF70A11C04E815F816885798598014D
:101EA0008B8D9C8D0E94681491E0C91AD108E108BD
:101EB000F108811104C00EC08E010A5F1F4FC114CA
:101EC000D104E104F10439F78A869B86AC86BD868D
:101ED00081E006C080E004C0223009F091CFF4CF49
:101EE000DF91CF911F910F91FF90EF90DF90CF90F6
:101EF000BF90AF909F908F9008950F931F93CF93B3
:101F0000DF93EC018D818823C9F18C8187FF30C07C
:101F100061E0CE010E94A70C8C01009779F18D81C0
:101F2000823048F44B895C896D897E89F801448F41
:101F3000558F668F778F4F89588D698D7A8DF8010F
:101F4000538F428F758B648BE091FD02F091FE02FE
:101F5000309759F0B8016A5E7F4FC80148960995DD
:101F6000F801808D918D938B828B8C818F778C8300
:101F7000DF91CF911F910F910C94CC1380E0DF91F2
:101F8000CF911F910F910895CF93DF93EC010E94A1
:101F90007D0F882319F01D8281E001C080E0DF9170
:101FA000CF9108956F927F928F929F92AF92BF923E
:101FB000CF92DF92EF92FF920F931F93CF93DF9315
:101FC00000D000D0CDB7DEB73C016A017B01FC0137
:101FD0008581813009F083C0848181FF80C081C008
:101FE000452B462B472B09F478C0F3018284938458
:101FF000A484B584B701A601C3010E94E20E811139
:1020000001C06DC0F301838D948DC114D104E1042E
:10201000F10479F44789508D618D728D0E940E17FD
:10202000882309F45CC0F301178A108E118E128E7A
:102030003AC0F30146815781608571859E012F5F0B
:102040003F4F0E946814882309F449C049815A818E
:102050006B817C81F301838D948DFC012789203174
:1020600029F408EF1FEF20E030E004C008EF1FEF75
:102070002FEF3FE04017510762077307A0F40E945B
:102080000E17882361F1F3014681578160857185C0
:102090000FEF1FEF2FEF3FE0838D948D0E945515BA
:1020A000811101C01CC0F301C38AD48AE58AF68A73
:1020B000848180688483C3010E947D0F882379F026
:1020C000B701A6018C149D04AE04BF0410F4B50141
:1020D000A401C3010E94E20E10C081E00EC080E0A6
:1020E0000CC0F30143895489658976894C155D05D7
:1020F0006E057F0508F074CFF2CF0F900F900F9010
:102100000F90DF91CF911F910F91FF90EF90DF9093
:10211000CF90BF90AF909F908F907F906F900895D9
:10212000FF920F931F93CF93DF93EC01F42E80E285
:10213000689FF0011124EA5FFC4F8385817129F0CB
:10214000842F827411F080E053C06A8B00910601E5
:102150001091070120910801309109010E871F8716
:10216000288B398B4489558960E070E0BA01552786
:102170004427028D138D20E030E0402B512B622B41
:10218000732B4F8B588F698F7A8F8385887151F4A9
:10219000048D158D268D378D0B8B1C8B2D8B3E8BD7
:1021A00081E00CC0803179F69E012D5E3F4F8B8D12
:1021B0009C8D0E94EA14882331F284E08D838F2D58
:1021C0008F708C831E821F82188619861A861B8642
:1021D0001C861D86F6FE0BC040E050E0BA01CE0121
:1021E000DF91CF911F910F91FF900C94D20F81E05E
:1021F000DF91CF911F910F91FF9008954F925F92C1
:102200006F927F928F929F92AF92BF92CF92DF9206
:10221000EF92FF920F931F93CF93DF93CDB7DEB76B
:102220002B970FB6F894DEBF0FBECDBF5C013B010C
:10223000CA01422EF50125812111C2C08E010F5F16
:102240001F4FB8010E94C10C811101C0B9C0F30138
:10225000838D948DF501948F838FF30116821782FD
:10226000108611861286138614861586512C902EA0
:10227000812E41C0B5E0F694E794D794C794BA95FF
:10228000D1F7FFE0CF22DD24EE24FF241C2DC30173
:102290000E948D0E009709F493C0FC012081222337
:1022A00011F0253EB9F451100EC0F501128B0091CA
:1022B000060110910701209108013091090106875C
:1022C0001787208B318BFC01808155245394882300
:1022D00009F111C04BE050E0BC01892D982D0E94FE
:1022E000B019009741F4842D8073803309F468C0DD
:1022F000442D6C2D61C0F301C284D384E484F58441
:102300000389148925893689C016D106E206F306A9
:1023100008F4B0CF842D8271823109F051C055206C
:1023200041F061E0C5010E94A70C8C01009779F48F
:1023300047C0F3018581823009F442C0C3010E9485
:10234000460C8823E9F1F501128A06E013E080E2E9
:10235000F80111928A95E9F78BE0FE013196D801D8
:1023600001900D928A95E1F7E091FD02F091FE0255
:10237000309739F0B801625F7F4FC80140960995E8
:1023800009C081E298E2F801918B808B80E098E0AF
:1023900097878687F80180899189938B828B918FAB
:1023A000808F86859785978B868B0E94CC13882398
:1023B00039F0442DF5016289C5010E94901001C0D9
:1023C00080E02B960FB6F894DEBF0FBECDBFDF9135
:1023D000CF911F910F91FF90EF90DF90CF90BF9022
:1023E000AF909F908F907F906F905F904F900895E7
:1023F0002F923F924F925F926F927F928F929F9215
:10240000AF92BF92CF92DF92EF92FF920F931F9302
:10241000CF93DF93CDB7DEB729970FB6F894DEBF21
:102420000FBECDBF3C01162F072F1A01DC011596F8
:102430008C91813009F078C1F301848181FF74C1EE
:102440007DC1D30153964D915D916D917C915697CD
:102450001A968D919D910D90BC91A02D8417950792
:10246000A607B70721F421011D830E8325C1C301EF
:102470000E94E20E882309F457C1F5CFF301838D42
:10248000948DDC011496BC91B150B701A60129E0EE
:1024900076956795579547952A95D1F7B423BF83CD
:1024A000E1E0DE22EE24FF24D986C886B1114EC0B9
:1024B000C114D10409F04AC0D30116964D915D9123
:1024C0006D917C911997411551056105710561F474
:1024D00057960D911D912D913C915A97011511051B
:1024E0002105310571F527C09E012F5F3F4F0E94E6
:1024F0006814811101C01FC109811A812B813C819F
:10250000D3015B96ED91FC915C978789803139F41A
:1025100098EF892E99249A94A12CB12C07C088EFAA
:10252000882E99249A94A92C8FE0B82E08151905A5
:102530002A053B0530F0C3010E941C0C811106C026
:10254000F3C0F301068317832087318780E092E090
:1025500028853985821B930B52018415950508F453
:102560005C01D3015B96ED91FC915C971696CD9042
:10257000DD90ED90FC901997B2E0CB1AD108E108FC
:10258000F108058404C0CC0CDD1CEE1CFF1C0A9471
:10259000D2F786859785A089B189C80ED91EEA1E13
:1025A000FB1EEF81CE0ED11CE11CF11CA114F2E048
:1025B000BF0659F50091060110910701209108010D
:1025C000309109010C151D052E053F0559F48FEFBB
:1025D0009FEFDC018093060190930701A09308010F
:1025E000B09309012D813E81B701A60180910403BA
:1025F000909105030E94CC0B882309F495C0AD810E
:10260000BE81BE5FBE83AD8345C0E885F985EF2BF3
:1026100009F5F30182859385A485B585038914891D
:102620002589368980179107A207B30798F00E9481
:10263000CC13882309F478C0C0920601D092070118
:10264000E0920801F0920901809103038160809378
:10265000030308C041E0C701B6010E9407148823A4
:1026600009F462C0888599858A5F9C4F9C012A0D78
:102670003B1DAD81BE81FC0102C04D914193E2172B
:10268000F307D9F7E81BF90B2D813E812E0F3F1F71
:102690003E832D834A185B08D3011A96CD90DD90B6
:1026A000ED90FC901D97CA0CDB1CE11CF11CF301A2
:1026B000C286D386E486F586D3011A96CD90DD9046
:1026C000ED90FC901D974114510409F0D7CE53961C
:1026D0000D911D912D913C9156970C151D052E05C0
:1026E0003F0548F4F301C38AD48AE58AF68A8481D7
:1026F0008068848310C08091FD029091FE02892B36
:1027000051F02114310439F0D30114968C911497AF
:10271000806814968C93F301848183FF12C0C301F7
:102720000E947D0F81110DC081E090E0D3011396CE
:102730009C938E931297212C312C03C082FD81CE65
:1027400092CEC10129960FB6F894DEBF0FBECDBF61
:10275000DF91CF911F910F91FF90EF90DF90CF907D
:10276000BF90AF909F908F907F906F905F904F90B1
:102770003F902F900895CF93DF931F92CDB7DEB790
:10278000698341E050E0BE016F5F7F4F0E94F81106
:102790000F90DF91CF91089580910303882399F1E1
:1027A0004091060150910701609108017091090163
:1027B00026E033E080910403909105030E94CC0B46
:1027C000882319F14091FF025091000360910103A9
:1027D00070910203411551056105710591F026E0E4
:1027E00033E080910403909105030E94CC0B882371
:1027F00061F01092FF0210920003109201031092F8
:1028000002031092030381E0089580E00895CF92BF
:10281000DF92EF92FF92CF936B017C01C42F8091E6
:10282000060190910701A0910801B09109018C1552
:102830009D05AE05BF05D1F00E94CC13811102C0E9
:1028400080E01AC026E033E0B701A60180910403BE
:10285000909105030E94890B882391F3C092060191
:10286000D0920701E0920801F092090180910303E0
:102870008C2B8093030381E0CF91FF90EF90DF904A
:10288000CF900895CF92DF92EF92FF926B017C017F
:102890000E94CC138823B1F0E6E0F3E0119285E0CA
:1028A000E630F807D9F7C0920601D0920701E0920E
:1028B0000801F09209018091030381608093030372
:1028C00081E001C080E0FF90EF90DF90CF9008950D
:1028D000AF92BF92CF92DF92EF92FF920F931F932E
:1028E000CF93DF935C016A017B01E901FC01418523
:1028F0005285638574854F5F5F4F6F4F7F4F4C15D7
:102900005D056E057F0510F480E059C0FC018389E8
:102910009489A589B6892789203129F477276F2DD5
:102920005E2D4D2D09C0B701A60127E0769567956C
:10293000579547952A95D1F78A019B01080F191FD2
:102940002A1F3B1FC901B801009106011091070120
:1029500020910801309109016017710782079307E0
:1029600029F4F50187898031A1F406C040E00E9476
:1029700007148111F6CFC8CFDD24EE24FF24F60121
:10298000EE0FFF1FEA5FFC4F80819181A0E0B0E075
:1029900011C0E894C7F8DD24EE24FF24F601EE0F01
:1029A000FF1FEE0FFF1FEA5FFC4F80819181A28124
:1029B000B381BF7088839983AA83BB8381E0DF9151
:1029C000CF911F910F91FF90EF90DF90CF90BF902C
:1029D000AF9008956F927F928F929F92AF92BF9225
:1029E000CF92DF92EF92FF920F931F93CF93DF93DB
:1029F00000D000D0CDB7DEB78C0149835A836B83FA
:102A00007C833901C12CD12C7601812C42E0942E9B
:102A1000A12CB12C49815A816B817C819E012F5F51
:102A20003F4FC8010E946814882359F1D501C401A1
:102A3000F801058404C0880F991FAA1FBB1F0A94C0
:102A4000D2F7C80ED91EEA1EFB1E89819A81AB817E
:102A5000BC812789203129F448EF5FEF60E070E006
:102A600004C048EF5FEF6FEF7FE084179507A6077C
:102A7000B70780F2F301C082D182E282F38281E063
:102A800001C080E00F900F900F900F90DF91CF91D9
:102A90001F910F91FF90EF90DF90CF90BF90AF907C
:102AA0009F908F907F906F9008956F927F928F92FA
:102AB0009F92AF92BF92CF92DF92EF92FF920F93CD
:102AC0001F93CF93DF9300D0CDB7DEB73C016A01EF
:102AD0007B01423051056105710508F47CC0F301AA
:102AE00041855285638574854F5F5F4F6F4F7F4F80
:102AF0004C155D056E057F0508F46DC083889488CC
:102B0000A588B6888789803129F477276F2D5E2DB7
:102B10004D2D09C0B701A601E7E076956795579559
:102B20004795EA95D1F7840E951EA61EB71E809193
:102B3000060190910701A0910801B0910901881642
:102B40009906AA06BB0629F4F30187898031C1F4EE
:102B50000CC040E0C501B40129833A830E940714E8
:102B600029813A818111F0CF36C0DD24EE24FF2483
:102B7000F601EE0FFF1FEA5FFC4F1183008310C0C8
:102B8000E894C7F8DD24EE24FF24F601EE0FFF1FC2
:102B9000EE0FFF1FEA5FFC4F008311832283338314
:102BA00080910303816080930303F3018289823063
:102BB00080F085819681A781B085880D991DAA1D19
:102BC000BB1D8093FF0290930003A0930103B09379
:102BD000020381E001C080E00F900F90DF91CF9160
:102BE0001F910F91FF90EF90DF90CF90BF90AF902B
:102BF0009F908F907F906F9008952F923F924F9269
:102C00005F926F927F928F929F92AF92BF92CF927C
:102C1000DF92EF92FF920F931F93CF93DF93CDB785
:102C2000DEB72F970FB6F894DEBF0FBECDBF1C01E5
:102C30004C875D876E877F873B872A87D9018D9078
:102C40009D90AD90BC9081149104A104B10431F029
:102C5000BFEF8B1A9B0AAB0ABB0A10C0FC01808035
:102C60009180A280B380F1E0FD832C853D854E8567
:102C70005F85213031054105510509F01D82D101E3
:102C800019964D905D906D907C901C97BFEF4B1AFC
:102C90005B0A6B0A7B0A750164011E821F8218861B
:102CA0001986F10181859285A385B4852E813F81A6
:102CB00048855985281739074A075B0708F052C02D
:102CC0004C145D046E047F0450F4A2E0CA2ED12C93
:102CD000E12CF12CB2E08B2E912CA12CB12C9E0179
:102CE0002F5F3F4FB701A601C1010E9468148823DE
:102CF000C9F149815A816B817C81D701C601019656
:102D0000A11DB11D452B462B472B19F04C015D0130
:102D10000DC088199909AA09BB092C853D854E85E6
:102D20005F8582179307A407B50789F08E819F817D
:102D3000A885B9850196A11DB11D8E839F83A887A3
:102D4000B9879FEFC91AD90AE90AF90AAACF0FEF82
:102D50001FEF2FEF3FE0A601B701C1010E945515FB
:102D6000811115C080E041C044244A94542C3201A2
:102D70004C0C5D1C6E1C7F1C97018601B301A201E7
:102D8000C1010E945515882369F3730162018C14F7
:102D90009D04AE04BF0440F3AA85BB854D915D91AF
:102DA0006D917C91411551056105710551F4EA85DC
:102DB000FB8580829182A282B382FD81F11109C0DC
:102DC00013C095018401C1010E9455158111EFCFF7
:102DD000C9CF2FEF821A920AA20AB20AD1018D92AC
:102DE0009D92AD92BC92139781E02F960FB6F89406
:102DF000DEBF0FBECDBFDF91CF911F910F91FF902E
:102E0000EF90DF90CF90BF90AF909F908F907F908A
:102E10006F905F904F903F902F900895AF92BF9228
:102E2000CF92DF92EF92FF920F931F93CF93DF9396
:102E300000D000D0CDB7DEB75C016A017B0142E073
:102E400050E060E070E0FC01408351836283738353
:102E50009E012F5F3F4FB701A601C5010E94681474
:102E6000882311F100E010E09801B701A601C50127
:102E70000E9455158823C1F0C980DA80EB80FC8060
:102E8000F5018789803129F448EF5FEF60E070E059
:102E900004C048EF5FEF6FEF7FE0C416D506E6068B
:102EA000F706B0F281E001C080E00F900F900F9024
:102EB0000F90DF91CF911F910F91FF90EF90DF90D6
:102EC000CF90BF90AF9008958F929F92AF92BF9294
:102ED000CF92DF92EF92FF920F931F93CF93DF93E6
:102EE000EC01142F7093050360930403442349F10C
:102EF000453010F080E0EDC040E060E070E0CB01D4
:102F00000E9407148823B1F320E1129FF0011124DD
:102F1000EC54FB4F80818F7769F7C484D584E684B5
:102F2000F78434E6C316D104E104F10418F3C08435
:102F3000D184E284F384C114D104E104F10421F4C6
:102F4000D9CFC12CD12C760140E0C701B6010E9437
:102F50000714882379F2809111039091120381154F
:102F6000924041F620911603222321F2809114030E
:102F700090911503009709F4BDCF409113034423AA
:102F800009F4B8CF2A8B4C831D8650E061E070E0D5
:102F900006C02E2F2F5F2D87E83008F0ABCFED85D0
:102FA0009B010E2E02C0220F331F0A94E2F7421734
:102FB000530779F720911C0330911D03211531052A
:102FC00019F040E050E008C020912A0330912B0313
:102FD00040912C0350912D032D833E834F835887BE
:102FE00046015701880E991EA11CB11C8B8A9C8A30
:102FF000AD8ABE8A0091170310911803198F088FAC
:10300000A0911603B0E00E94E519680D791D8A1D94
:103010009B1D6A8F7B8F8C8F9D8F980115E0220FEF
:10302000331F1A95E1F721503E4F232F3327269562
:10303000DC01CB01820F931FA11DB11D8E879F87DD
:10304000A88BB98B8090190390901A038114910476
:1030500019F0A12CB12C08C0809026039090270372
:10306000A0902803B0902903A7019601281B390BD3
:103070004A0B5B0BDA01C901880D991DAA1DBB1D06
:1030800004C0B695A79597958795EA95D2F7898755
:103090009A87AB87BC87853F3FE09307A105B105C1
:1030A00010F48CE014C0853F9F4FA105B10510F4CA
:1030B00080E10DC04091320350913303609134039D
:1030C000709135034A8F5B8F6C8F7D8F80E28F8B81
:1030D00081E0DF91CF911F910F91FF90EF90DF90F2
:1030E000CF90BF90AF909F908F9008950F931F93B4
:1030F000CF93DF938230910510F482E090E0E0916D
:103100000805F091090520E030E0C0E0D0E023C0E0
:103110004081518148175907A8F04817590761F4B1
:1031200082819381209719F09B838A832EC090938C
:1031300009058093080529C02115310529F042179A
:10314000530710F0A90102C0BE01DF010281138103
:10315000EF019A01F8013097D9F62115310509F1EF
:10316000281B390B2430310590F412968D919C91D7
:1031700013976115710521F0FB019383828304C0CD
:103180009093090580930805FD01329644C0FD0126
:10319000E20FF31F81939193225031092D933C93B9
:1031A0003AC02091060530910705232B41F4209168
:1031B0000201309103013093070520930605209109
:1031C0000001309101012115310541F42DB73EB7C1
:1031D0004091040150910501241B350BE091060537
:1031E000F0910705E217F307A0F42E1B3F0B2817F9
:1031F000390778F0AC014E5F5F4F2417350748F070
:103200004E0F5F1F509307054093060581939193DE
:1032100002C0E0E0F0E0CF01DF91CF911F910F916C
:103220000895EF92FF920F931F93CF93DF93009730
:1032300009F48EC0DC01129713961C921E9212970D
:10324000E0900805F0900905E114F10489F42D914E
:103250003C911197280F391F809106059091070521
:103260008217930789F5B0930705A093060570C0F0
:10327000E70120E030E001C0EA01CA17DB0738F4BB
:103280004A815B819E0141155105B1F722C0AC0115
:1032900042505109FA01D383C28300811181BC01DC
:1032A000600F711F6C177D0761F468817981600F71
:1032B000711F6E5F7F4F718360836A817B8173832F
:1032C00062832115310529F4B0930905A0930805FF
:1032D0003FC0F901B383A283E90149915991C40F19
:1032E000D51FAC17BD0771F4DC019E918E91840F40
:1032F000951F02969183808312968D919C911397CE
:1033000093838283A0E0B0E002C0D7017C01F70183
:10331000828193810097C9F7C7010296208131818C
:10332000820F931F20910605309107052817390752
:1033300079F4109729F4109209051092080504C039
:1033400013961C921E921297F0920705E0920605C2
:10335000CDB7DEB7E6E00C941E1AF8940C943F1A31
:10336000FB01DC0104C08D910190801921F44150D2
:103370005040C8F7881B990B0895FC01819186176E
:1033800021F08823D9F7992708953197CF0108951F
:10339000FB01DC014150504030F08D9101908019CB
:1033A00019F40020B9F7881B990B0895FB01DC0183
:1033B0004150504048F001900D920020C9F701C0E3
:1033C0001D9241505040E0F708950E942D1AA59F8C
:1033D000900DB49F900DA49F800D911D1124089510
:1033E000A1E21A2EAA1BBB1BFD010DC0AA1FBB1F09
:1033F000EE1FFF1FA217B307E407F50720F0A21B7B
:10340000B30BE40BF50B661F771F881F991F1A94E7
:1034100069F760957095809590959B01AC01BD0111
:10342000CF0108952A88398848885F846E847D8416
:103430008C849B84AA84B984C884DF80EE80FD805C
:103440000C811B81AA81B981CE0FD11D0FB6F894D2
:10345000DEBF0FBECDBFED010895A29FB001B39FA7
:10346000C001A39F01D0B29F700D811D1124911D39
:103470000895EE0FFF1F0590F491E02D099410E0E0
:10348000CEECD0E004C0FE010E943B1A2296C03D63
:08349000D107C9F7F894FFCF42
:1034980000000A052000FFFFFFFF496E697469619B
:1034A8006C697A696E6720534420636172642E2EBA
:1034B8002E00696E697469616C697A6174696F6EEE
:1034C800206661696C65642100496E697469616C84
:1034D800697A6174696F6E20646F6E652E0054415D
:1034E8004720636F64652069733A20004B45594C47
:1034F8004953542E545854004B45594C4953542E53
:103508005458543A00427974657320726561643A7C
:1035180020002020544845204F4E45212121210DCF
:103528000A002020596F75206C6F736500657272F0
:103538006F72206F70656E696E672066696C6500D2
:1035480000000000CF0359056C039B037F03BD03F4
:1035580000000000150633061907690673062B06D6
:0A3568002F0000000000BB135905FE
:00000001FF
