:100000000C9468000C9490000C9490000C94900058
:100010000C9490000C9490000C9490000C94900020
:100020000C9490000C9490000C9490000C94900010
:100030000C9490000C9490000C9490000C94900000
:100040000C94BC010C9490000C94D5030C941104F6
:100050000C9490000C9490000C9490000C949000E0
:100060000C9490000C949000000000070002010026
:100070000003040600000000000000000102040864
:100080001020408001020408102001020408102002
:10009000040404040404040402020202020203032E
:1000A0000303030300000000250028002B000000CC
:1000B0000000240027002A007C3C3E5E2B3D3F2FA1
:1000C0005B5D3B2C2A225C00B401CC04A809B8017A
:1000D00011241FBECFEFD8E0DEBFCDBF11E0A0E0FE
:1000E000B1E0ECEDF5E302C005900D92A03BB10745
:1000F000D9F714E0A0EBB1E001C01D92AC3DB1070F
:10010000E1F710E0CEECD0E004C02297FE010E949F
:10011000DD1AC83CD107C9F70E941C050C944F1A80
:100120000C94000040E659E060E070E08FED91E053
:100130000E944C046AE071E08FED91E00E9461053D
:1001400061E08AE00E94CD0264E086E892E00E94CD
:100150000B08811106C062E271E08FED91E00C9412
:10016000800569E371E08FED91E00E94800561E018
:1001700082E00E94CD0260E082E00C940503EF92E1
:10018000FF920F931F93CF93DF93CDB7DEB76B979B
:100190000FB6F894DEBF0FBECDBF21E04EE451E0B4
:1001A00066E872E0EE24E394F12CEC0EFD1EC7012C
:1001B0000E9422098B819C819093B3018093B201AC
:1001C0000D811E812F8138850093B4011093B501F4
:1001D0002093B6013093B70109851A852B853C859C
:1001E0000093B8011093B9012093BA013093BB0179
:1001F0008DE0FE013D96ACEBB1E001900D928A9549
:10020000E1F78A8D9B8D9093CA018093C901C70144
:100210000E94890780EB91E00E94FE078823F9F095
:10022000870180EB91E00E94BB07892BD9F024E184
:1002300030E0A8016AE080EB91E00E948606800F22
:10024000911FFC0110824AE050E0B8018BEC91E074
:100250000E946A1A009729F701E010E005C00FEF2D
:100260001FEF02C000E010E080EB91E00E94EC077D
:100270004AE050E0B8018FED91E00E943C06C801D1
:100280006B960FB6F894DEBF0FBECDBFDF91CF9156
:100290001F910F91FF90EF90089561E082E00C9420
:1002A000050360E082E00C9405030F931F93CF9346
:1002B000DF938FED91E00E943C03181619061CF0A5
:1002C000C0E0D0E02AC08FED91E00E946B030A9756
:1002D000B9F70BEC11E0C0E0D0E08FED91E00E94A7
:1002E0003C0318161906CCF78FED91E00E946B03C2
:1002F0008A30910551F08D30910539F0F8018193E4
:100300008F012196CA30D10541F71092D5016BECCF
:1003100071E08FED91E00E948005CE01DF91CF91D9
:100320001F910F9108950E9451010E9455010A9753
:10033000D1F40E944D010E94BF00009719F46AE5B4
:1003400071E007C0019619F466E671E002C069E742
:1003500071E08FED91E00E9480056CED75E080E02A
:1003600090E00C944202089580EB91E00C947607A3
:1003700080EB91E00C9489071F920F920FB60F92B9
:1003800011242F933F938F939F93AF93BF938091AB
:10039000D6019091D701A091D801B091D9013091A7
:1003A000DE01232F2D5F2D3720F40196A11DB11DF5
:1003B00005C0232F2A570296A11DB11D2093DE01EF
:1003C0008093D6019093D701A093D801B093D9011F
:1003D0008091DA019091DB01A091DC01B091DD0107
:1003E0000196A11DB11D8093DA019093DB01A093CA
:1003F000DC01B093DD01BF91AF919F918F913F914F
:100400002F910F900FBE0F901F9018950F931F9371
:100410008FB7F8940091D6011091D7012091D8019F
:100420003091D9018FBFB801C9011F910F91089573
:100430000F931F939FB7F8940091DA011091DB019D
:100440002091DC013091DD0186B5A89B06C08F3F6D
:1004500021F00F5F1F4F2F4F3F4F9FBF322F212F94
:10046000102F0027080F111D211D311D42E0000F24
:10047000111F221F331F4A95D1F7B801C9011F91DF
:100480000F910895CF92DF92EF92FF92CF93DF9377
:100490006B017C010E941802EB010EC00E94180241
:1004A0006C1B7D0B683E734038F081E0C81AD108A0
:1004B000E108F108C851DC4FC114D104E104F10492
:1004C00069F7DF91CF91FF90EF90DF90CF90089583
:1004D000789484B5826084BD84B5816084BD85B51F
:1004E000826085BD85B5816085BDEEE6F0E08081E6
:1004F00081608083E1E8F0E0108280818260808307
:10050000808181608083E0E8F0E080818160808389
:10051000E1EBF0E0808184608083E0EBF0E08081BB
:1005200081608083EAE7F0E080818460808380815D
:100530008260808380818160808380818068808305
:100540001092C1000895833069F028F48130A1F041
:10055000823011F514C08630B1F08730C1F084309C
:10056000D9F404C0809180008F7703C0809180000F
:100570008F7D80938000089584B58F7702C084B505
:100580008F7D84BD08958091B0008F7703C08091E6
:10059000B0008F7D8093B0000895CF93DF9390E0FB
:1005A000FC01E458FF4F4491FC01E057FF4F849158
:1005B000882341F190E0880F991FFC01E255FF4F1D
:1005C00025913491D9018C559F4FFC0185919491CF
:1005D000C82FD92F9FB7F8948C91611106C0409510
:1005E00084238C938881842308C0623041F4242FB3
:1005F000209582238C938881842B888302C0842B4E
:100600008C939FBFDF91CF9108950F931F93CF934A
:10061000DF931F92CDB7DEB7282F30E0F901E859FC
:10062000FF4F8491F901E458FF4F1491F901E0570D
:10063000FF4F04910023D1F0882321F069830E94A9
:10064000A3026981E02FF0E0EE0FFF1FEC55FF4F92
:1006500085919491DC019FB7F8948C91611103C04E
:100660001095812301C0812B8C939FBF0F90DF9148
:10067000CF911F910F910895FC0184859585FC0110
:10068000E05CFF4F20813181FC01EE5BFF4F8081F8
:100690009181281B390B2F733327C9010895FC0161
:1006A00084859585FC01E05CFF4F40815181FC0110
:1006B000EE5BFF4F208131814217530741F00190DB
:1006C000F081E02DE80FF91F208130E002C02FEF0C
:1006D0003FEFC9010895FC0184859585FC01E05C2C
:1006E000FF4F40815181FC01EE5BFF4F2081318142
:1006F0004217530771F0A081B181A80FB91F2C9147
:100700008081918101968F7399279183808330E056
:1007100002C02FEF3FEFC9010895FC018685978540
:10072000FC01E05CFF4FDC01AE5BBF4F40815181BB
:100730002D913C91119742175307C1F70895CF931C
:10074000DF93FC0126853785D901A05CBF4F8D91D1
:100750009C91119701968F739927E901CE5BDF4F2A
:100760004881598184179507D9F30D90BC91A02D2C
:10077000A20FB31F6C93A685B785A05CBF4F1196DF
:100780009C938E93A689B7892C9181E090E0058C8B
:1007900002C0880F991F0A94E2F7282B2C9381E05E
:1007A00090E0DF91CF91089508951F920F920FB6B8
:1007B0000F9211242F933F934F938F939F93EF9317
:1007C000FF934091C600809182029091830201962E
:1007D0008F739927209184023091850282179307A5
:1007E00059F0E0918202F0918302EE5BFD4F40836D
:1007F0009093830280938202FF91EF919F918F915A
:100800004F913F912F910F900FBE0F901F90189511
:100810008FED91E00E943C03892B11F00C94D403DE
:1008200008951F920F920FB60F9211242F933F93AA
:100830008F939F93EF93FF9320913E0230913F025D
:1008400080914002909141022817390731F480913C
:10085000C1008F7D8093C10014C0E0914002F091EF
:100860004102E250FE4F208180914002909141026E
:1008700001968F73992790934102809340022093B1
:10088000C600FF91EF919F918F913F912F910F9013
:100890000FBE0F901F901895CF92DF92EF92FF92AC
:1008A000CF93DF93EC016A017B01411581EE58077C
:1008B00061057105F9F0EC89FD8981E090E00E8C0D
:1008C00002C0880F991F0A94E2F7808360E079E004
:1008D0008DE390E0A70196010E94921A2150310900
:1008E000410951095695479537952795211580E17E
:1008F000380798F0EC89FD89108260E874E88EE191
:1009000090E0A70196010E94921A215031094109F5
:1009100051095695479537952795E889F989308388
:10092000EA89FB892083EE89FF89408181E090E09C
:100930009C010A8C02C0220F331F0A94E2F7422B5B
:100940004083EE89FF8940819C010B8C02C0220FFD
:10095000331F0A94E2F7422B4083EE89FF894081DE
:100960009C010C8C02C0220F331F0A94E2F7422B29
:100970004083EE89FF8920810D8C02C0880F991F6A
:100980000A94E2F7809582238083DF91CF91FF90D4
:10099000EF90DF90CF9008951092E2011092E10164
:1009A00088EE93E0A0E0B0E08093E3019093E4014F
:1009B000A093E501B093E6018AE891E09093E0010D
:1009C0008093DF0182E492E09093EC018093EB014D
:1009D0008EEF91E09093EE018093ED0185EC90E035
:1009E0009093F0018093EF0184EC90E09093F201FA
:1009F0008093F10180EC90E09093F4018093F301F7
:100A000081EC90E09093F6018093F50186EC90E004
:100A10009093F8018093F70184E08093F90183E0DB
:100A20008093FA0187E08093FB0185E08093FC01CD
:100A300081E08093FD0108950E9468020E94920067
:100A4000C8E0D4E00E9493012097E1F30E940804DB
:100A5000F9CFCF92DF92EF92FF920F931F93CF9334
:100A6000DF936C01EB017A01E60EF71E00E010E067
:100A70000BC06991D601ED91FC910190F081E02DC0
:100A8000C6010995080F191FCE15DF0591F7C8019A
:100A9000DF91CF911F910F91FF90EF90DF90CF905A
:100AA0000895DB010D900020E9F7AD014150510997
:100AB000461B570BDC01ED91FC910280F381E02D88
:100AC00009940C945105DC01ED91FC910190F081A9
:100AD000E02D09940F931F93CF93DF93EC016DE00A
:100AE0000E9463058C016AE0CE010E9463059C01AF
:100AF000200F311FC901DF91CF911F910F910895F0
:100B00000F931F93CF93DF93EC010E9451058C014B
:100B1000CE010E946A059801280F391FC901DF9193
:100B2000CF911F910F9108955F926F927F928F9254
:100B30009F92AF92BF92CF92DF92EF92FF920F936C
:100B40001F93CF93DF93CDB7DEB7A1970FB6F8947D
:100B5000DEBF0FBECDBF3C016A017B01522E19A240
:100B600081E0821710F08AE0582E8E010F5D1F4F32
:100B7000852C912CA12CB12CC701B601A5019401A3
:100B80000E94921A8C2D529E801911240150110935
:100B90008A3014F4805D01C0895CF80180836901AA
:100BA0007A01C114D104E104F10431F7B801C301A1
:100BB0000E945105A1960FB6F894DEBF0FBECDBFBF
:100BC000DF91CF911F910F91FF90EF90DF90CF9029
:100BD000BF90AF909F908F907F906F905F9008959F
:100BE000CF92DF92EF92FF920F931F93CF93DF93F9
:100BF000EC016A017B012115310579F4E881F98165
:100C00000190F081E02D642FDF91CF911F910F9122
:100C1000FF90EF90DF90CF9009942A30310519F4BE
:100C200077FD0EC02AE0B701A601CE01DF91CF917A
:100C30001F910F91FF90EF90DF90CF900C9494054F
:100C40006DE20E9463058C0144275527BA014C19B7
:100C50005D096E097F092AE0CE010E9494059C017E
:100C6000200F311FC901DF91CF911F910F91FF908C
:100C7000EF90DF90CF9008950F931F93CF93DF9362
:100C8000EC019A01AB01662757FD6095762F0E9413
:100C9000F0058C01CE010E946A059801280F391FCA
:100CA000C901DF91CF911F910F9108950F931F9369
:100CB000CF93DF93EC010E940602688779878A87C9
:100CC0009B87E881F9810680F781E02DCE010995A7
:100CD0009C0197FF15C00E940602088519852A8588
:100CE0003B85601B710B820B930B0C811D812E8148
:100CF0003F81601771078207930718F32FEF3FEFCB
:100D0000C901DF91CF911F910F910895AF92BF92CA
:100D1000CF92DF92EF92FF920F931F93CF93DF93C7
:100D20006C018A017901C0E0D0E02115310599F00C
:100D3000A62EBB24A7FCB094C6010E94560697FDC0
:100D40000AC08A159B0539F0F80181938F0121961D
:100D5000CE15DF0589F7CE01DF91CF911F910F915D
:100D6000FF90EF90DF90CF90BF90AF900895CF931A
:100D7000DF931F92CDB7DEB76983DC01ED91FC9163
:100D80000280F381E02D41E050E0BE016F5F7F4FB4
:100D900009950F90DF91CF910895FC01818D928D7F
:100DA000009711F00C941F100895CF93DF93EC017E
:100DB000898D9A8D009709F40CC0FC011382128270
:100DC0000E949A129C01E98DFA8D82819381892B70
:100DD00031F081E090E09B838A8320E030E0C9011C
:100DE000DF91CF910895CF93DF931F92CDB7DEB7F8
:100DF00041E050E0BE016F5F7F4F0E94EA0D019716
:100E000019F4298130E002C02FEF3FEFC9010F90A4
:100E1000DF91CF910895FC01818D928D009711F0A3
:100E20000C94F3068FEF9FEF08950F931F93CF93CA
:100E3000DF938C01FC01818D928D0097B1F00E94AF
:100E4000F306EC018F3FFFEF9F0789F0F801818DDA
:100E5000928DFC0142855385648575854150510909
:100E6000610971090E94840F02C0C0E0D0E0CE0188
:100E7000DF91CF911F910F910895CF92DF92EF9262
:100E8000FF920F931F93CF93DF93EC017B016A01D5
:100E90001B821A8208EE13E020E030E00C831D83F1
:100EA0002E833F838AE991E0998388838DE190E0E6
:100EB0000E941819DC019A8F898F009771F08DE1DB
:100EC000F70101900D928A95E1F74CE050E0B601F0
:100ED000CE010C960E94781A188EDF91CF911F9147
:100EE0000F91FF90EF90DF90CF900895FC01138257
:100EF000128248EE53E060E070E0448355836683DD
:100F000077838AE991E091838083128E118E148613
:100F100008952AE931E0FC013183208308950F937D
:100F20001F93DC015996ED91FC915A97309729F067
:100F3000028513852485358503C00FEF1FEF9801C7
:100F4000B801C9011F910F9108950F931F93DC0100
:100F50005996ED91FC915A97309729F0038914899D
:100F60002589368903C000E010E09801B801C90165
:100F70001F910F910895CF92DF92EF92FF92CF933E
:100F8000DF93EC01898D9A8D892BE1F0CE010E94CF
:100F9000A5076B017C01CE010E948F07A701960176
:100FA000261B370B480B590BDA01C901811530E8B4
:100FB0009307A105B10520F08FEF9FE7A0E0B0E017
:100FC0009C0102C020E030E0C901DF91CF91FF9089
:100FD000EF90DF90CF900895CF93DF93EC01898D50
:100FE0009A8D009741F00E946610898D9A8D0E941B
:100FF000B3191A8E198EDF91CF910895DC0159969D
:10100000ED91FC915A97309721F081E095819111F3
:1010100001C080E008950F931F93CF93DF93EC01FD
:10102000462F61E00E949E0A811101C012C08E010C
:10103000045F1F4F41E0BE01C8010E9406188823CB
:1010400051F0B801CE018A960E949A0D91E081116B
:101050000AC090E008C040E0BE01C8010E94061826
:101060008823B9F3EECF892FDF91CF911F910F9194
:101070000895FC01DB0112968D919C911397938347
:1010800082838CEA91E09183808314968C911497EB
:10109000848315968C911597858316964D915D9155
:1010A0006D917C91199746835783608771871A9653
:1010B0004D915D916D917C911D9742875387648717
:1010C00075871E964D915D916D917C9151974687E4
:1010D0005787608B718B52968C915297828B539667
:1010E0004D915D916D917C915697438B548B658B9F
:1010F000768B57964D915D916D917C915A97478B68
:10110000508F618F728F5B968D919C915C97948FBD
:10111000838F08954F925F926F927F928F929F92EA
:10112000AF92BF92CF92DF92EF92FF920F931F93F5
:10113000CF93DF93CDB7DEB7C754D1090FB6F8947C
:10114000DEBF0FBECDBF6C014A013901665D7F4F26
:101150005E018EE1A80EB11CC5010E9439081C82F7
:101160001B828CEA91E09A8389831E828401EE249B
:10117000E394F12CEC0EFD1E25013AC0F80120810C
:101180002F3219F40F5F1F4F33C0801B8D3008F0D2
:101190008CE0A82EB12CA501B801CE01CB960E94FF
:1011A000781AEBE3F0E0EC0FFD1FEA0DFB1D108257
:1011B000C7010E94661021E0AE01455C5F4FB2019D
:1011C000C7010E94A011811109C0F6011382128289
:1011D0008CEA91E09183808315821BC00A0D1B1D50
:1011E000C2010E946610942D852D2701E92EF82E4C
:1011F0006FE270E0C8010E945F1A009709F0BECF4D
:1012000008191909F30111830083B201C6010E9474
:101210003908C601C95BDF4F0FB6F894DEBF0FBEB9
:10122000CDBFDF91CF911F910F91FF90EF90DF9095
:10123000CF90BF90AF909F908F907F906F905F9076
:101240004F900895BF92CF92DF92EF92FF920F934B
:101250001F93CF93DF93CDB7DEB7C955D1090FB632
:10126000F894DEBF0FBECDBF7C016A01B22E9E0195
:10127000285A3F4FCE01CB960E948A086A960EAD3F
:101280001FAD6A970C0D1D1DF801808181110AC0E8
:10129000BE01655C7F4FCE0101960E94390846EA87
:1012A00051E03EC019A218A28CEA91E09F8F8E8F68
:1012B0001BA221968FAD2197811104C0C7010E9406
:1012C000760734C082502B2DA801823048F460EBA1
:1012D00072E0CE014E960E94A01181110EC0EECF99
:1012E000BE01655C7F4FCE014E960E94A0118823FF
:1012F00029F3CE01CB960E9466108B2D867041F0AB
:1013000049A95AA96BA97CA9CE014E960E94840FC7
:10131000BE01625E7F4FCE0101960E943908A8018E
:10132000BE016F5F7F4FC7010E943D07C701C75ACB
:10133000DF4F0FB6F894DEBF0FBECDBFDF91CF9168
:101340001F910F91FF90EF90DF90CF90BF90089585
:1013500010928B0210928C0210928F0210929102C6
:1013600082E090E0A0E0B0E080939202909393023C
:10137000A0939402B09395021092A9021092B30226
:101380001092B2028CEA91E09093B1028093B00285
:101390001092B50208958EBD0DB407FEFDCF0895DD
:1013A0008FEF0E94CB098EB5089561E0FC01848126
:1013B0000C94050360E0FC0184810C940503CF9339
:1013C000DF93EC018E818823C9F08FEF8EBD4FEF44
:1013D00004C00DB407FEFDCF4EBD8F8198859C01E2
:1013E0002F5F3F4F38872F838130924090F30DB4A9
:1013F00007FEFDCFCE010E94D5091E82DF91CF915D
:101400000895673028F026E1FC01258380E00895E7
:101410008DB560FD02C0663011F48E7F01C0816021
:101420008DBD8CB58C7F8CBD9CB562FF02C082E007
:1014300001C080E066956170692B682B6CBD81E00E
:1014400008950F931F93CF93DF93EB010E94060241
:101450008B010E94D0098F3F49F00E940602601B59
:10146000710B6C177D07A8F380E001C081E0DF916C
:10147000CF911F910F910895CF92DF92FF920F931A
:101480001F93CF93DF9300D000D0CDB7DEB76C01B0
:10149000F62E29833A834B835C830E94DF09C601C1
:1014A0000E94DA096CE271E0C6010E94210A8F2DC8
:1014B00080640E94CB0908E110E05C814B813A8195
:1014C0002981DA01C901002E04C0B695A795979528
:1014D00087950A94D2F729833A834B835C830E94D1
:1014E000CB090850110929813A814B815C81083F61
:1014F0008FEF180731F7FF2029F0E8E0FE1621F002
:101500008FEF03C085E901C087E80E94CB0910E096
:101510000E94D009F601828787FF04C01F3F11F0A7
:101520001F5FF6CF0F900F900F900F90DF91CF912C
:101530001F910F91FF90DF90CF900895BF92CF92AF
:10154000DF92EF92FF920F931F93CF93DF93EC0103
:10155000B62E1B8619861E821D824C830E940602AF
:101560008B0161E08C810E94CD02CE010E94D509E1
:1015700060E08CE00E94CD0261E08BE00E94CD0231
:1015800061E08DE00E94CD0261E08AE00E94CD0220
:1015900061E08AE00E94050383E58CBD8DB58E7FF6
:1015A0008DBD2AE0F22E8FEF0E94CB09FA94D9F775
:1015B000CE010E94DA0909C00E940602601B710B6D
:1015C000613D774010F081E058C020E030E0A90193
:1015D00060E0CE010E943C0AF82E8A8781E0F81272
:1015E000EBCF2AEA31E040E050E068E0CE010E9413
:1015F0003C0A82FF02C0FB860DC094E0F92E0E94D7
:10160000D0098A87FA94D9F78A3A11F082E035C076
:1016100082E08B878B85823031F4C12CD12CE12C78
:1016200080E4F82E0DC0C12CD12C760109C00E9497
:101630000602601B710B613D774010F088E01DC011
:1016400020E030E0A90167E3CE010E943C0AA70137
:10165000960169E2CE010E943C0A8A878111E7CF98
:101660008B858230C9F420E030E0A9016AE3CE0125
:101670000E943C0A882319F086E08D831DC00E94D9
:10168000D009807C803C11F483E08B870E94D009D4
:101690000E94D0090E94D009CE010E94D5096B2D6D
:1016A000CE01DF91CF911F910F91FF90EF90DF90CE
:1016B000CF90BF900C94010ACE010E94D50980E022
:1016C000DF91CF911F910F91FF90EF90DF90CF901E
:1016D000BF9008950F931F93CF93DF93EC010E9467
:1016E00006028B0109C00E940602601B710B6D325D
:1016F000714010F08FE008C00E94D0098A878F3FA8
:1017000091F38E3F39F08DE08D83CE010E94D50993
:1017100080E001C081E0DF91CF911F910F9108958A
:101720008F929F92AF92BF92CF92DF92EF92FF92F1
:101730000F931F93CF93DF93EC01590147010115DC
:10174000110509F475C0C801820F931F81309240C2
:1017500008F070C08E81882371F0C880D980EA803B
:10176000FB804C155D056E057F0529F48F819885FA
:10177000A816B90618F5488359836A837B838B853D
:10178000833039F0B9E0440F551F661F771FBA95B3
:10179000D1F79A01AB0161E1CE010E943C0A882396
:1017A00019F083E08D8346C0CE010E946A0B882326
:1017B00009F440C018861F8281E08E838FEF8EBDB2
:1017C0002FEF09C00DB407FEFDCF2EBD8F81988588
:1017D000019698878F838F8198858A159B0590F352
:1017E000C8010197F4014FEF06C00DB407FEFDCF0D
:1017F0002EB521934EBD9F012819390928173907A5
:10180000A0F30DB407FEFDCF2EB5F401E80FF91FCC
:1018100020838F819885800F911F98878F832985DA
:10182000222319F08115924018F0CE010E94DF09A1
:1018300081E004C0CE010E94D50980E0DF91CF9104
:101840001F910F91FF90EF90DF90CF90BF90AF90DE
:101850009F908F900895EF92FF920F931F937901BD
:1018600000E012E020E030E00E94900B1F910F9109
:10187000FF90EF900895CF93DF93EC016EBD20E0D1
:1018800030E00DB407FEFDCFFA01E20FF31F8081B7
:101890008EBD0DB407FEFDCF81818EBD2E5F3F4F03
:1018A000211582E0380769F70DB407FEFDCF8FEFF1
:1018B0000E94CB098FEF0E94CB090E94D0098A8732
:1018C0008F71853039F081E18D83CE010E94D50979
:1018D00080E001C081E0DF91CF9108950F931F93C5
:1018E000CF93DF93EC018901411551056105710525
:1018F00011F482E138C08B85833039F089E0440FE0
:10190000551F661F771F8A95D1F79A01AB0168E1D1
:10191000CE010E943C0A882311F084E024C0A80173
:101920006EEFCE010E943B0C8823B9F068E572E0AF
:10193000CE010E94210A811102C085E114C020E07D
:1019400030E0A9016DE0CE010E943C0A81110AC07D
:101950000E94D009811106C008C0CE010E94D5099D
:1019600080E007C084E18D83F8CFCE010E94D509C5
:1019700081E0DF91CF911F910F910895CF93DF9375
:10198000EC019C012A5F3F4F41E050E060E070E0D5
:101990008B8D9C8D0E949F168823A1F04F89588DB6
:1019A000698D7A8D452B462B472B71F44E815F81D3
:1019B000688579854F8B588F698F7A8F8C81806885
:1019C0008C8302C080E001C081E0DF91CF91089557
:1019D000CF92DF92EF92FF921F93CF93DF93EC01B0
:1019E0000E94BE0C811102C080E04BC0EB8DFC8DCB
:1019F000CE80DF80E884F98482E0C81AD108E1084B
:101A0000F108058404C0CC0CDD1CEE1CFF1C0A94FC
:101A1000D2F74685578560897189C40ED51EE61EAA
:101A2000F71E148181E0C81AD108E108F1080BC043
:101A3000C701B601610F711D811D911D0E94E41443
:101A4000882391F211501111F3CFEB8DFC8DC12C35
:101A500082E0D82EE12CF12C058404C0CC0CDD1CD6
:101A6000EE1CFF1C0A94D2F74B895C896D897E8934
:101A70004C0D5D1D6E1D7F1D4B8B5C8B6D8B7E8BAE
:101A800081E0DF91CF911F91FF90EF90DF90CF9099
:101A90000895CF93DF93EC01462F6E857F8588896B
:101AA00099890E94A914882341F02A8980E2289FFD
:101AB0009001112428523D4F02C020E030E0C901BE
:101AC000DF91CF910895FB012BE030E2319321505B
:101AD000E9F750E0A7E022C04E3241F4AA3041F1CC
:101AE00058E0AAE01BC0E41303C022C028EB30E09A
:101AF000F9012F5F3F4FE491E111F5CFA517C0F039
:101B00004132B0F04F37A0F4FB01E50FF11D242F57
:101B100021562A3108F4405240835F5FFC01419115
:101B2000CF014111D9CF81E0FB019081903209F4BE
:101B300080E008950F931F93CF93DF93EC018B0107
:101B40008D81882311F080E040C0FB0187898031BE
:101B5000B1F482E08D831F8A188E198E1A8E408D03
:101B6000518D60E070E0E5E0440F551F661F771F60
:101B7000EA95D1F74B8B5C8B6D8B7E8B15C08032D9
:101B800011F783E08D83FB01428D538D648D758D3C
:101B90004F8B588F698F7A8F9E012D5E3F4FC80102
:101BA0000E948C15882379F21C8F0B8F81E08C8327
:101BB0001E821F82188619861A861B861C861D8621
:101BC0001E861F86188A198A1A8ADF91CF911F9163
:101BD0000F9108952F923F924F925F926F927F9252
:101BE0008F929F92AF92BF92CF92DF92EF92FF922D
:101BF0000F931F93CF93DF9300D000D0CDB7DEB704
:101C00009C838B831A01DC0115968C91811103C092
:101C10002FEF3FEF0CC1EB81FC81848180FFF8CF77
:101C2000D4C018012C183D0841015B018B819C81B7
:101C300006969A838983C3C0AB81BC811A96CD90E6
:101C4000DD90ED90FC901D97412C512C32014A946F
:101C500053944C205D206E207F2015964C91159753
:101C60009701860189E036952795179507958A95FE
:101C7000D1F75B968D919C915C97423051F4FC01B9
:101C8000628D738D848D958D600F711F821F931FE0
:101C90004CC0DC0114967C907A947022411451045B
:101CA00001F571101EC0CD28CE28CF2859F4EB8144
:101CB000FC818789908DA18DB28D86839783A087C3
:101CC000B1870FC0AB81BC8116964D915D916D912E
:101CD0007C91199729813A810E940A15882309F479
:101CE00097CFAB81BC815B96ED91FC915C9716968A
:101CF0006D917D918D919C91199762507109810927
:101D00009109058404C0660F771F881F991F0A94E4
:101D1000D2F70685178520893189600F711F821FD0
:101D2000931F670D711D811D911D20E032E0241964
:101D3000350934012815390508F43901EB81FC8196
:101D4000248126FD05C06114F2E07F0609F069C018
:101D5000C0900601D0900701E0900801F0900901C1
:101D60006C157D058E059F0509F04DC05AC0A60C67
:101D7000B71C12C0C20188529D4F9C01260D371D11
:101D8000FC01D50102C041914D93E217F307D9F749
:101D9000E81BF90BAE0EBF1EAB81BC811A96CD902D
:101DA000DD90ED90FC901D97C60CD71CE11CF11C3A
:101DB000FD01C286D386E486F586861897088114CD
:101DC000910409F039CF910132C0AB81BC815396A7
:101DD0000D911D912D913C9156971A96CD90DD90C5
:101DE000ED90FC901D972A01612C712C480159013E
:101DF0008C189D08AE08BF0884149504A604B70487
:101E000008F40FCF11CF750183019201AB01BC0122
:101E10008091D6029091D7020E94900B8111A7CF9A
:101E2000F7CE40E00E94A9148111A4CFF1CEC901E0
:101E30000F900F900F900F90DF91CF911F910F9106
:101E4000FF90EF90DF90CF90BF90AF909F908F90DA
:101E50007F906F905F904F903F902F900895CF921A
:101E6000DF92EF92FF920F931F93CF93DF931F9216
:101E7000CDB7DEB78C01FC018581823018F420E0FB
:101E800030E037C0F801C284D384E484F58425E0CF
:101E9000F694E794D794C7942A95D1F7FFE0CF2220
:101EA000DD24EE24FF2441E050E0BE016F5F7F4F50
:101EB000C8010E94EA0D019719F4898190E002C0DF
:101EC0008FEF9FEF0196D9F2F80142855385648523
:101ED0007585415E5F4F6F4F7F4F428753876487A1
:101EE0007587960195E0220F331F9A95E1F72852E6
:101EF0003D4FC9010F90DF91CF911F910F91FF903E
:101F0000EF90DF90CF9008958F929F92AF92BF9203
:101F1000CF92DF92EF92FF920F931F93CF93DF93B5
:101F2000EC014A015B012D81222309F475C08B89E4
:101F30009C89AD89BE8984179507A607B70708F461
:101F40006BC06CC081149104A104B10449F41E82D9
:101F50001F82188619861A861B861C861D865AC003
:101F60000A851B852C853D85EB8DFC8D858590E054
:101F70000996B901A8014150510961097109082E5A
:101F800004C076956795579547950A94D2F7CC2467
:101F9000CA94DC2C7601C80CD91CEA1CFB1C04C0BA
:101FA000F694E794D794C7948A95D2F7C416D506C9
:101FB000E606F70620F0012B022B032B49F44F898C
:101FC000588D698D7A8D4E835F836887798716C0B7
:101FD000C41AD50AE60AF70A11C04E815F816885E6
:101FE000798598018B8D9C8D0E940A1591E0C91A04
:101FF000D108E108F108811104C00EC08E010A5F0A
:102000001F4FC114D104E104F10439F78A869B867D
:10201000AC86BD8681E006C080E004C0223009F0B5
:1020200091CFF4CFDF91CF911F910F91FF90EF905F
:10203000DF90CF90BF90AF909F908F9008950F93B7
:102040001F93CF93DF93EC018D818823C9F18C819D
:1020500087FF30C061E0CE010E94490D8C010097DE
:1020600079F18D81823048F44B895C896D897E8954
:10207000F801448F558F668F778F4F89588D698D02
:102080007A8DF801538F428F758B648BE091CF026C
:10209000F091D002309759F0B8016A5E7F4FC801C5
:1020A00048960995F801808D918D938B828B8C8158
:1020B0008F778C83DF91CF911F910F910C946E14C9
:1020C00080E0DF91CF911F910F910895CF93DF931F
:1020D000EC010E941F10882319F01D8281E001C0CD
:1020E00080E0DF91CF9108956F927F928F929F92BF
:1020F000AF92BF92CF92DF92EF92FF920F931F9316
:10210000CF93DF9300D000D0CDB7DEB73C016A019A
:102110007B01FC018581813009F083C0848181FFCE
:1021200080C081C0452B462B472B09F478C0F301B2
:1021300082849384A484B584B701A601C3010E945C
:10214000840F811101C06DC0F301838D948DC11482
:10215000D104E104F10479F44789508D618D728DC9
:102160000E94B017882309F45CC0F301178A108E0F
:10217000118E128E3AC0F3014681578160857185B8
:102180009E012F5F3F4F0E940A15882309F449C022
:1021900049815A816B817C81F301838D948DFC018F
:1021A0002789203129F408EF1FEF20E030E004C038
:1021B00008EF1FEF2FEF3FE040175107620773074B
:1021C000A0F40E94B017882361F1F3014681578182
:1021D000608571850FEF1FEF2FEF3FE0838D948DAA
:1021E0000E94F715811101C01CC0F301C38AD48A73
:1021F000E58AF68A848180688483C3010E941F1067
:10220000882379F0B701A6018C149D04AE04BF04A5
:1022100010F4B501A401C3010E94840F10C081E035
:102220000EC080E00CC0F30143895489658976892A
:102230004C155D056E057F0508F074CFF2CF0F9049
:102240000F900F900F90DF91CF911F910F91FF9002
:10225000EF90DF90CF90BF90AF909F908F907F9046
:102260006F900895FF920F931F93CF93DF93EC012C
:10227000F42E80E2689FF0011124E852FD4F83851F
:10228000817129F0842F827411F080E053C06A8B31
:102290000091060110910701209108013091090178
:1022A0000E871F87288B398B4489558960E070E041
:1022B000BA0155274427028D138D20E030E0402BD2
:1022C000512B622B732B4F8B588F698F7A8F83859D
:1022D000887151F4048D158D268D378D0B8B1C8BD9
:1022E0002D8B3E8B81E00CC0803179F69E012D5EF6
:1022F0003F4F8B8D9C8D0E948C15882331F284E09A
:102300008D838F2D8F708C831E821F821886198675
:102310001A861B861C861D86F6FE0BC040E050E028
:10232000BA01CE01DF91CF911F910F91FF900C94D4
:10233000741081E0DF91CF911F910F91FF9008956C
:102340004F925F926F927F928F929F92AF92BF92C5
:10235000CF92DF92EF92FF920F931F93CF93DF9371
:10236000CDB7DEB72B970FB6F894DEBF0FBECDBF4B
:102370005C013B01CA01422EF50125812111C2C039
:102380008E010F5F1F4FB8010E94630D811101C0C4
:10239000B9C0F301838D948DF501948F838FF30180
:1023A0001682178210861186128613861486158669
:1023B000512C902E812E41C0B5E0F694E794D7942D
:1023C000C794BA95D1F7FFE0CF22DD24EE24FF2495
:1023D0001C2DC3010E942F0F009709F493C0FC012C
:1023E0002081222311F0253EB9F451100EC0F501D1
:1023F000128B009106011091070120910801309184
:10240000090106871787208B318BFC0180815524B9
:102410005394882309F111C04BE050E0BC01892D91
:10242000982D0E94521A009741F4842D80738033B6
:1024300009F468C0442D6C2D61C0F301C284D384BB
:10244000E484F5840389148925893689C016D10668
:10245000E206F30608F4B0CF842D8271823109F0D0
:1024600051C0552041F061E0C5010E94490D8C0129
:10247000009779F447C0F3018581823009F442C0A6
:10248000C3010E94E80C8823E9F1F501128A08EDE6
:1024900012E080E2F80111928A95E9F78BE0FE01E3
:1024A0003196D80101900D928A95E1F7E091CF0223
:1024B000F091D002309739F0B801625F7F4FC801C8
:1024C0004096099509C081E298E2F801918B808BD2
:1024D00080E098E097878687F80180899189938BBF
:1024E000828B918F808F86859785978B868B0E94B4
:1024F0006E14882339F0442DF5016289C5010E94CC
:10250000321101C080E02B960FB6F894DEBF0FBEEB
:10251000CDBFDF91CF911F910F91FF90EF90DF9092
:10252000CF90BF90AF909F908F907F906F905F9073
:102530004F9008952F923F924F925F926F927F92A9
:102540008F929F92AF92BF92CF92DF92EF92FF92C3
:102550000F931F93CF93DF93CDB7DEB729970FB6B5
:10256000F894DEBF0FBECDBF3C01162F072F1A0116
:10257000DC0115968C91813009F078C1F3018481DA
:1025800081FF74C17DC1D30153964D915D916D91D1
:102590007C9156971A968D919D910D90BC91A02D8E
:1025A00084179507A607B70721F421011D830E8321
:1025B00025C1C3010E94840F882309F457C1F5CFB8
:1025C000F301838D948DDC011496BC91B150B70159
:1025D000A60129E076956795579547952A95D1F7F5
:1025E000B423BF83E1E0DE22EE24FF24D986C8862F
:1025F000B1114EC0C114D10409F04AC0D3011696DE
:102600004D915D916D917C91199741155105610531
:10261000710561F457960D911D912D913C915A973A
:10262000011511052105310571F527C09E012F5FA8
:102630003F4F0E940A15811101C01FC109811A81F3
:102640002B813C81D3015B96ED91FC915C9787894E
:10265000803139F498EF892E99249A94A12CB12CC9
:1026600007C088EF882E99249A94A92C8FE0B82E61
:10267000081519052A053B0530F0C3010E94BE0C60
:10268000811106C0F3C0F3010683178320873187C9
:1026900080E092E028853985821B930B52018415D6
:1026A000950508F45C01D3015B96ED91FC915C9774
:1026B0001696CD90DD90ED90FC901997B2E0CB1A74
:1026C000D108E108F108058404C0CC0CDD1CEE1C27
:1026D000FF1C0A94D2F786859785A089B189C80E18
:1026E000D91EEA1EFB1EEF81CE0ED11CE11CF11C8F
:1026F000A114F2E0BF0659F50091060110910701FF
:1027000020910801309109010C151D052E053F058A
:1027100059F48FEF9FEFDC0180930601909307013E
:10272000A0930801B09309012D813E81B701A60154
:102730008091D6029091D7020E946E0C882309F4F2
:1027400095C0AD81BE81BE5FBE83AD8345C0E885C7
:10275000F985EF2B09F5F30182859385A485B5856D
:10276000038914892589368980179107A207B30741
:1027700098F00E946E14882309F478C0C092060174
:10278000D0920701E0920801F09209018091D502F0
:1027900081608093D50208C041E0C701B6010E9464
:1027A000A914882309F462C08885998588529D4FB1
:1027B0009C012A0D3B1DAD81BE81FC0102C04D91E3
:1027C0004193E217F307D9F7E81BF90B2D813E81FE
:1027D0002E0F3F1F3E832D834A185B08D3011A96A4
:1027E000CD90DD90ED90FC901D97CA0CDB1CE11C98
:1027F000F11CF301C286D386E486F586D3011A96CE
:10280000CD90DD90ED90FC901D974114510409F09E
:10281000D7CE53960D911D912D913C9156970C1545
:102820001D052E053F0548F4F301C38AD48AE58AC5
:10283000F68A84818068848310C08091CF02909151
:10284000D002892B51F02114310439F0D3011496B0
:102850008C911497806814968C93F301848183FF84
:1028600012C0C3010E941F1081110DC081E090E0D1
:10287000D30113969C938E931297212C312C03C075
:1028800082FD81CE92CEC10129960FB6F894DEBFAB
:102890000FBECDBFDF91CF911F910F91FF90EF90B1
:1028A000DF90CF90BF90AF909F908F907F906F9070
:1028B0005F904F903F902F900895CF93DF931F929A
:1028C000CDB7DEB7698341E050E0BE016F5F7F4F57
:1028D0000E949A120F90DF91CF9108958091D502B6
:1028E000882399F1409106015091070160910801F8
:1028F0007091090128ED32E08091D6029091D702C3
:102900000E946E0C882319F14091D1025091D2029D
:102910006091D3027091D402411551056105710592
:1029200091F028ED32E08091D6029091D7020E947A
:102930006E0C882361F01092D1021092D202109294
:10294000D3021092D4021092D50281E0089580E063
:102950000895CF92DF92EF92FF92CF936B017C01AB
:10296000C42F8091060190910701A0910801B091B8
:1029700009018C159D05AE05BF05D1F00E946E14AE
:10298000811102C080E01AC028ED32E0B701A60133
:102990008091D6029091D7020E942B0C882391F34C
:1029A000C0920601D0920701E0920801F09209015D
:1029B0008091D5028C2B8093D50281E0CF91FF903E
:1029C000EF90DF90CF900895CF92DF92EF92FF9239
:1029D0006B017C010E946E148823B1F0E8EDF2E0F7
:1029E000119284E0E83DF807D9F7C0920601D09231
:1029F0000701E0920801F09209018091D5028160FF
:102A00008093D50281E001C080E0FF90EF90DF90DD
:102A1000CF900895AF92BF92CF92DF92EF92FF9244
:102A20000F931F93CF93DF935C016A017B01E90150
:102A3000FC0141855285638574854F5F5F4F6F4F01
:102A40007F4F4C155D056E057F0510F480E059C081
:102A5000FC0183899489A589B6892789203129F4C5
:102A600077276F2D5E2D4D2D09C0B701A60127E0F8
:102A700076956795579547952A95D1F78A019B01D9
:102A8000080F191F2A1F3B1FC901B8010091060139
:102A90001091070120910801309109016017710719
:102AA0008207930729F4F50187898031A1F406C0D4
:102AB00040E00E94A9148111F6CFC8CFDD24EE2496
:102AC000FF24F601EE0FFF1FE852FD4F8081918138
:102AD000A0E0B0E011C0E894C7F8DD24EE24FF24A4
:102AE000F601EE0FFF1FEE0FFF1FE852FD4F808132
:102AF0009181A281B381BF7088839983AA83BB83AC
:102B000081E0DF91CF911F910F91FF90EF90DF90C7
:102B1000CF90BF90AF9008956F927F928F929F92C7
:102B2000AF92BF92CF92DF92EF92FF920F931F93DB
:102B3000CF93DF9300D000D0CDB7DEB78C014983AF
:102B40005A836B837C833901C12CD12C7601812C73
:102B500042E0942EA12CB12C49815A816B817C8159
:102B60009E012F5F3F4FC8010E940A15882359F12B
:102B7000D501C401F801058404C0880F991FAA1F5C
:102B8000BB1F0A94D2F7C80ED91EEA1EFB1E89810C
:102B90009A81AB81BC812789203129F448EF5FEF0E
:102BA00060E070E004C048EF5FEF6FEF7FE08417F4
:102BB0009507A607B70780F2F301C082D182E282AF
:102BC000F38281E001C080E00F900F900F900F9092
:102BD000DF91CF911F910F91FF90EF90DF90CF90F9
:102BE000BF90AF909F908F907F906F9008956F925D
:102BF0007F928F929F92AF92BF92CF92DF92EF928D
:102C0000FF920F931F93CF93DF9300D0CDB7DEB722
:102C10003C016A017B01423051056105710508F4F0
:102C20007CC0F30141855285638574854F5F5F4F9A
:102C30006F4F7F4F4C155D056E057F0508F46DC025
:102C400083889488A588B6888789803129F4772776
:102C50006F2D5E2D4D2D09C0B701A601E7E07695D9
:102C6000679557954795EA95D1F7840E951EA61E50
:102C7000B71E8091060190910701A0910801B091C3
:102C8000090188169906AA06BB0629F4F30187896B
:102C90008031C1F40CC040E0C501B40129833A83FE
:102CA0000E94A91429813A818111F0CF36C0DD2418
:102CB000EE24FF24F601EE0FFF1FE852FD4F1183B3
:102CC000008310C0E894C7F8DD24EE24FF24F60149
:102CD000EE0FFF1FEE0FFF1FE852FD4F0083118321
:102CE000228333838091D50281608093D502F301E2
:102CF0008289823080F085819681A781B085880D98
:102D0000991DAA1DBB1D8093D1029093D202A0935E
:102D1000D302B093D40281E001C080E00F900F9005
:102D2000DF91CF911F910F91FF90EF90DF90CF90A7
:102D3000BF90AF909F908F907F906F9008952F924B
:102D40003F924F925F926F927F928F929F92AF923B
:102D5000BF92CF92DF92EF92FF920F931F93CF9388
:102D6000DF93CDB7DEB72F970FB6F894DEBF0FBE57
:102D7000CDBF1C014C875D876E877F873B872A8785
:102D8000D9018D909D90AD90BC9081149104A104C7
:102D9000B10431F0BFEF8B1A9B0AAB0ABB0A10C01B
:102DA000FC0180809180A280B380F1E0FD832C85BE
:102DB0003D854E855F85213031054105510509F07E
:102DC0001D82D10119964D905D906D907C901C975D
:102DD000BFEF4B1A5B0A6B0A7B0A750164011E8206
:102DE0001F8218861986F10181859285A385B48595
:102DF0002E813F8148855985281739074A075B0787
:102E000008F052C04C145D046E047F0450F4A2E03C
:102E1000CA2ED12CE12CF12CB2E08B2E912CA12CBE
:102E2000B12C9E012F5F3F4FB701A601C1010E9447
:102E30000A158823C9F149815A816B817C81D701A8
:102E4000C6010196A11DB11D452B462B472B19F03C
:102E50004C015D010DC088199909AA09BB092C858F
:102E60003D854E855F8582179307A407B50789F0D6
:102E70008E819F81A885B9850196A11DB11D8E8384
:102E80009F83A887B9879FEFC91AD90AE90AF90A67
:102E9000AACF0FEF1FEF2FEF3FE0A601B701C1014F
:102EA0000E94F715811115C080E041C044244A9466
:102EB000542C32014C0C5D1C6E1C7F1C970186014A
:102EC000B301A201C1010E94F715882369F37301C0
:102ED00062018C149D04AE04BF0440F3AA85BB8537
:102EE0004D915D916D917C91411551056105710583
:102EF00051F4EA85FB8580829182A282B382FD81B2
:102F0000F11109C013C095018401C1010E94F71598
:102F10008111EFCFC9CF2FEF821A920AA20AB20A0B
:102F2000D1018D929D92AD92BC92139781E02F9624
:102F30000FB6F894DEBF0FBECDBFDF91CF911F91CA
:102F40000F91FF90EF90DF90CF90BF90AF909F9048
:102F50008F907F906F905F904F903F902F9008954B
:102F6000AF92BF92CF92DF92EF92FF920F931F9397
:102F7000CF93DF9300D000D0CDB7DEB75C016A01FC
:102F80007B0142E050E060E070E0FC01408351834F
:102F9000628373839E012F5F3F4FB701A601C50176
:102FA0000E940A15882311F100E010E09801B70192
:102FB000A601C5010E94F7158823C1F0C980DA80F7
:102FC000EB80FC80F5018789803129F448EF5FEFC1
:102FD00060E070E004C048EF5FEF6FEF7FE0C41681
:102FE000D506E606F706B0F281E001C080E00F905A
:102FF0000F900F900F90DF91CF911F910F91FF9045
:10300000EF90DF90CF90BF90AF9008958F929F92F6
:10301000AF92BF92CF92DF92EF92FF920F931F93E6
:10302000CF93DF93EC01142F7093D7026093D602F5
:10303000442349F1453010F080E0EDC040E060E00D
:1030400070E0CB010E94A9148823B1F320E1129F04
:10305000F0011124EA57FB4F80818F7769F7C48410
:10306000D584E684F78434E6C316D104E104F10480
:1030700018F3C084D184E284F384C114D104E10440
:10308000F10421F4D9CFC12CD12C760140E0C70145
:10309000B6010E94A914882379F28091E3029091ED
:1030A000E4028115924041F62091E802222321F2A8
:1030B0008091E6029091E702009709F4BDCF40911C
:1030C000E502442309F4B8CF2A8B4C831D8650E0D7
:1030D00061E070E006C02E2F2F5F2D87E83008F0EA
:1030E000ABCFED859B010E2E02C0220F331F0A9439
:1030F000E2F74217530779F72091EE023091EF0281
:103100002115310519F040E050E008C02091FC0283
:103110003091FD024091FE025091FF022D833E83CB
:103120004F83588746015701880E991EA11CB11C78
:103130008B8A9C8AAD8ABE8A0091E9021091EA02CC
:10314000198F088FA091E802B0E00E94871A680DDD
:10315000791D8A1D9B1D6A8F7B8F8C8F9D8F980197
:1031600015E0220F331F1A95E1F721503E4F232F10
:1031700033272695DC01CB01820F931FA11DB11DC2
:103180008E879F87A88BB98B8090EB029090EC0282
:103190008114910419F0A12CB12C08C08090F80280
:1031A0009090F902A090FA02B090FB02A70196015C
:1031B000281B390B4A0B5B0BDA01C901880D991DDD
:1031C000AA1DBB1D04C0B695A79597958795EA954E
:1031D000D2F789879A87AB87BC87853F3FE0930703
:1031E000A105B10510F48CE014C0853F9F4FA105E7
:1031F000B10510F480E10DC0409104035091050326
:1032000060910603709107034A8F5B8F6C8F7D8FEF
:1032100080E28F8B81E0DF91CF911F910F91FF9022
:10322000EF90DF90CF90BF90AF909F908F900895D8
:103230000F931F93CF93DF938230910510F482E0B8
:1032400090E0E091DA04F091DB0420E030E0C0E0AF
:10325000D0E023C04081518148175907A8F0481792
:10326000590761F482819381209719F09B838A83A7
:103270002EC09093DB048093DA0429C02115310518
:1032800029F04217530710F0A90102C0BE01DF0167
:1032900002811381EF019A01F8013097D9F62115C7
:1032A000310509F1281B390B2430310590F41296B1
:1032B0008D919C9113976115710521F0FB0193830A
:1032C000828304C09093DB048093DA04FD0132967C
:1032D00044C0FD01E20FF31F819391932250310905
:1032E0002D933C933AC02091D8043091D904232BDC
:1032F00041F420910201309103013093D9042093CD
:10330000D80420910001309101012115310541F4CB
:103310002DB73EB74091040150910501241B350B98
:10332000E091D804F091D904E217F307A0F42E1B22
:103330003F0B2817390778F0AC014E5F5F4F241719
:10334000350748F04E0F5F1F5093D9044093D804BF
:103350008193919302C0E0E0F0E0CF01DF91CF9143
:103360001F910F910895EF92FF920F931F93CF93A8
:10337000DF93009709F48EC0DC01129713961C921C
:103380001E921297E090DA04F090DB04E114F1044D
:1033900089F42D913C911197280F391F8091D80401
:1033A0009091D9048217930789F5B093D904A0931B
:1033B000D80470C0E70120E030E001C0EA01CA177C
:1033C000DB0738F44A815B819E0141155105B1F755
:1033D00022C0AC0142505109FA01D383C28300815B
:1033E0001181BC01600F711F6C177D0761F468814A
:1033F0007981600F711F6E5F7F4F718360836A8177
:103400007B81738362832115310529F4B093DB043A
:10341000A093DA043FC0F901B383A283E901499183
:103420005991C40FD51FAC17BD0771F4DC019E91F3
:103430008E91840F951F02969183808312968D91B1
:103440009C91139793838283A0E0B0E002C0D701E0
:103450007C01F701828193810097C9F7C701029629
:1034600020813181820F931F2091D8043091D9049B
:103470002817390779F4109729F41092DB04109279
:10348000DA0404C013961C921E921297F092D9048B
:10349000E092D804CDB7DEB7E6E00C94C01AF894F9
:1034A0000C94E11AFB01DC0104C08D91019080199C
:1034B00021F441505040C8F7881B990B0895FC0136
:1034C0008191861721F08823D9F79927089531979C
:1034D000CF010895FB01DC014150504030F08D9147
:1034E0000190801919F40020B9F7881B990B0895F1
:1034F000FB01DC014150504048F001900D9200204A
:10350000C9F701C01D9241505040E0F708950E9454
:10351000CF1AA59F900DB49F900DA49F800D911D73
:1035200011240895A1E21A2EAA1BBB1BFD010DC098
:10353000AA1FBB1FEE1FFF1FA217B307E407F50763
:1035400020F0A21BB30BE40BF50B661F771F881F3F
:10355000991F1A9469F760957095809590959B01D5
:10356000AC01BD01CF0108952A88398848885F845D
:103570006E847D848C849B84AA84B984C884DF8013
:10358000EE80FD800C811B81AA81B981CE0FD11DF7
:103590000FB6F894DEBF0FBECDBFED010895A29F18
:1035A000B001B39FC001A39F01D0B29F700D811DD8
:1035B0001124911D0895EE0FFF1F0590F491E02D49
:1035C000099410E0CEECD0E004C0FE010E94DD1AA8
:0C35D0002296C03DD107C9F7F894FFCF48
:1035DC000000DC042000FFFFFFFF496E6974696185
:1035EC006C697A696E6720534420636172642E2E75
:1035FC002E00696E697469616C697A6174696F6EA9
:10360C00206661696C65642100496E697469616C3E
:10361C00697A6174696F6E20646F6E652E004B451C
:10362C00594C4953542E545854004B657920496ECB
:10363C0076616C69640074686572652077617320CB
:10364C00616E206572726F72006F70656E696E6765
:10365C0020646F6F7200000000009F0329053C037B
:10366C006B034F038D0300000000B706D506BB07A4
:10367C000B071507CD062F00000000005D1429056F
:00000001FF
