:100000000C945D000C9485000C9485000C94850084
:100010000C9485000C9485000C9485000C9485004C
:100020000C9485000C9485000C9485000C9485003C
:100030000C9485000C9485000C9485000C9485002C
:100040000C94FF000C9485000C9406030C9442035E
:100050000C9485000C9485000C9485000C9485000C
:100060000C9485000C94850000000007000201003C
:100070000003040600000000000000000102040864
:100080001020408001020408102001020408102002
:10009000040404040404040402020202020203032E
:1000A0000303030300000000250028002B000000CC
:1000B0000000240027002A00FD0311241FBECFEFFB
:1000C000D8E0DEBFCDBF11E0A0E0B1E0E4EEF9E0A2
:1000D00002C005900D92AE31B107D9F711E0AEE143
:1000E000B1E001C01D92AC3DB107E1F710E0CAEBF1
:1000F000D0E004C02297FE010E94EC04C83BD10767
:10010000C9F70E944D040C94C5040C94000040E60D
:1001100059E060E070E085E391E00E947D0361E0DA
:1001200082E00E94FE0160E082E00C94360285E3EA
:1001300091E00E946D02181619060CF05FC085E36D
:1001400091E00E949C0290932B0180932A010A97D0
:1001500009F054C010921F0110921E012AC085E3BD
:1001600091E00E946D02181619061CF585E391E0D6
:100170000E949C0290932B0180932A018A30910562
:1001800039F480911E0190911F010A9729F518C03A
:100190008D309105B1F320911E0130911F01F901BD
:1001A000E05EFE4F80832F5F3F4F30931F0120930F
:1001B0001E0180911E0190911F010A9784F2E1CFE8
:1001C00060E071E085E391E00E94920460E271E0FA
:1001D00085E391E00E94B10410921F0110921E016C
:1001E00061E082E00E9436026CED75E080E090E014
:1001F0000E94730160E082E00C94360208951F9221
:100200000F920FB60F9211242F933F938F939F93CA
:10021000AF93BF9380912C0190912D01A0912E015D
:10022000B0912F0130913401232F2D5F2D3720F411
:100230000196A11DB11D05C0232F2A570296A11DAD
:10024000B11D2093340180932C0190932D01A09334
:100250002E01B0932F018091300190913101A09136
:100260003201B09133010196A11DB11D809330017F
:1002700090933101A0933201B0933301BF91AF91BC
:100280009F918F913F912F910F900FBE0F901F90D4
:1002900018950F931F939FB7F89400913001109118
:1002A0003101209132013091330186B5A89B06C0FF
:1002B0008F3F21F00F5F1F4F2F4F3F4F9FBF322FB8
:1002C000212F102F0027080F111D211D311D42E085
:1002D000000F111F221F331F4A95D1F7B801C90122
:1002E0001F910F910895CF92DF92EF92FF92CF93DB
:1002F000DF936B017C010E944901EB010EC00E945B
:1003000049016C1B7D0B683E734038F081E0C81AD0
:10031000D108E108F108C851DC4FC114D104E1044F
:10032000F10469F7DF91CF91FF90EF90DF90CF90CC
:100330000895789484B5826084BD84B5816084BD5D
:1003400085B5826085BD85B5816085BDEEE6F0E04E
:10035000808181608083E1E8F0E0108280818260AA
:100360008083808181608083E0E8F0E0808181602B
:100370008083E1EBF0E0808184608083E0EBF0E05B
:10038000808181608083EAE7F0E0808184608083FF
:1003900080818260808380818160808380818068A9
:1003A00080831092C1000895833069F028F4813071
:1003B000A1F0823011F514C08630B1F08730C1F061
:1003C0008430D9F404C0809180008F7703C080917D
:1003D00080008F7D80938000089584B58F7702C060
:1003E00084B58F7D84BD08958091B0008F7703C060
:1003F0008091B0008F7D8093B0000895CF93DF93FC
:1004000090E0FC01E458FF4F4491FC01E057FF4F9E
:100410008491882341F190E0880F991FFC01E255F7
:10042000FF4F25913491D9018C559F4FFC01859147
:100430009491C82FD92F9FB7F8948C91611106C061
:10044000409584238C938881842308C0623041F4D2
:10045000242F209582238C938881842B888302C04B
:10046000842B8C939FBFDF91CF9108950F931F939F
:10047000CF93DF931F92CDB7DEB7282F30E0F9017D
:10048000E859FF4F8491F901E458FF4F1491F901A5
:10049000E057FF4F04910023D1F0882321F06983B6
:1004A0000E94D4016981E02FF0E0EE0FFF1FEC55B0
:1004B000FF4F85919491DC019FB7F8948C91611165
:1004C00003C01095812301C0812B8C939FBF0F9097
:1004D000DF91CF911F910F910895FC01848595853F
:1004E000FC01E05CFF4F20813181FC01EE5BFF4F9E
:1004F00080819181281B390B2F733327C9010895FF
:10050000FC0184859585FC01E05CFF4F40815181B1
:10051000FC01EE5BFF4F208131814217530741F010
:100520000190F081E02DE80FF91F208130E002C03A
:100530002FEF3FEFC9010895FC0184859585FC01EB
:10054000E05CFF4F40815181FC01EE5BFF4F208159
:1005500031814217530771F0A081B181A80FB91FF3
:100560002C918081918101968F739927918380834B
:1005700030E002C02FEF3FEFC9010895FC018685EE
:100580009785FC01E05CFF4FDC01AE5BBF4F408113
:1005900051812D913C91119742175307C1F708954E
:1005A000CF93DF93FC0126853785D901A05CBF4F2F
:1005B0008D919C91119701968F739927E901CE5BDC
:1005C000DF4F4881598184179507D9F30D90BC916D
:1005D000A02DA20FB31F6C93A685B785A05CBF4F5B
:1005E00011969C938E93A689B7892C9181E090E017
:1005F000058C02C0880F991F0A94E2F7282B2C93D0
:1006000081E090E0DF91CF91089508951F920F92BD
:100610000FB60F9211242F933F934F938F939F9375
:10062000EF93FF934091C6008091D8019091D9013A
:1006300001968F7399272091DA013091DB0182179F
:10064000930759F0E091D801F091D901E856FE4F97
:1006500040839093D9018093D801FF91EF919F91AE
:100660008F914F913F912F910F900FBE0F901F9040
:10067000189585E391E00E946D02892B11F00C948E
:10068000050308951F920F920FB60F9211242F9316
:100690003F938F939F93EF93FF9320919401309119
:1006A000950180919601909197012817390731F4AF
:1006B0008091C1008F7D8093C10014C0E0919601AC
:1006C000F0919701EC5AFE4F208180919601909114
:1006D000970101968F7399279093970180939601C4
:1006E0002093C600FF91EF919F918F913F912F91A1
:1006F0000F900FBE0F901F901895CF92DF92EF9240
:10070000FF92CF93DF93EC016A017B01411581EEEB
:10071000580761057105F9F0EC89FD8981E090E0E9
:100720000E8C02C0880F991F0A94E2F7808360E064
:1007300079E08DE390E0A70196010E94C804215062
:100740003109410951095695479537952795211546
:1007500080E1380798F0EC89FD89108260E874E840
:100760008EE190E0A70196010E94C8042150310952
:10077000410951095695479537952795E889F98993
:100780003083EA89FB892083EE89FF89408181E0FB
:1007900090E09C010A8C02C0220F331F0A94E2F7FA
:1007A000422B4083EE89FF8940819C010B8C02C063
:1007B000220F331F0A94E2F7422B4083EE89FF8910
:1007C00040819C010C8C02C0220F331F0A94E2F777
:1007D000422B4083EE89FF8920810D8C02C0880F57
:1007E000991F0A94E2F7809582238083DF91CF914D
:1007F000FF90EF90DF90CF90089510923801109203
:10080000370188EE93E0A0E0B0E080933901909347
:100810003A01A0933B01B0933C0182E191E09093B7
:1008200036018093350188E991E0909342018093ED
:10083000410184E591E0909344018093430185EC6C
:1008400090E0909346018093450184EC90E0909372
:1008500048018093470180EC90E090934A01809397
:10086000490181EC90E090934C0180934B0186EC20
:1008700090E090934E0180934D0184E080934F016E
:1008800083E08093500187E08093510185E080935D
:10089000520181E08093530108950E9499010E94C2
:1008A0008700C9E3D3E00E9497002097E1F30E94FC
:1008B0003903F9CFCF92DF92EF92FF920F931F93FC
:1008C000CF93DF936C01EB017A01E60EF71E00E097
:1008D00010E00BC06991D601ED91FC910190F0817F
:1008E000E02DC6010995080F191FCE15DF0591F7F8
:1008F000C801DF91CF911F910F91FF90EF90DF9092
:10090000CF900895DB010D900020E9F7AD01415033
:100910005109461B570BDC01ED91FC910280F381DC
:10092000E02D09940C948204DC01ED91FC9101907E
:10093000F081E02D09940F931F93CF93DF93EC0187
:100940006DE00E9494048C016AE0CE010E94940440
:100950009C01200F311FC901DF91CF911F910F9191
:1009600008950F931F93CF93DF93EC010E948204AD
:100970008C01CE010E949B049801280F391FC901E8
:10098000DF91CF911F910F910895F8940C94F0048A
:10099000A1E21A2EAA1BBB1BFD010DC0AA1FBB1F83
:1009A000EE1FFF1FA217B307E407F50720F0A21BF5
:1009B000B30BE40BF50B661F771F881F991F1A9462
:1009C00069F760957095809590959B01AC01BD018C
:1009D000CF010895EE0FFF1F0590F491E02D0994CB
:0409E000F894FFCFB9
:1009E40054414720636F64652069733A2000000016
:0E09F4000000D0025A046D029C028002BE0276
:00000001FF
