:100000000C9464000C948C000C948C000C948C0068
:100010000C948C000C948C000C948C000C948C0030
:100020000C948C000C948C000C948C000C948C0020
:100030000C948C000C948C000C948C000C948C0010
:100040000C947A010C948C000C94FA020C943603F4
:100050000C948C000C948C000C948C000C948C00F0
:100060000C948C000C948C0000000007000201002E
:100070000003040600000000000000000102040864
:100080001020408001020408102001020408102002
:10009000040404040404040402020202020203032E
:1000A0000303030300000000250028002B000000CC
:1000B0000000240027002A006401F303AF040308B2
:1000C000C708B50A33143E1711241FBECFEFD8E07E
:1000D000DEBFCDBF12E0A0E0B1E0EEEBF4E302C082
:1000E00005900D92AC30B107D9F715E0ACE0B2E065
:1000F00001C01D92A531B107E1F710E0C8ECD0E0D6
:1001000004C02297FE010E94591AC83BD107C9F7C3
:100110000E94BE040C94C1190C9400000F931F930D
:10012000CF93DF9300D000D000D0CDB7DEB740E84A
:1001300055E260E070E084E294E00E94710384E2A2
:1001400094E00E94F1038823D1F36AE071E087ED27
:1001500094E00E942308892B39F462E171E084E283
:1001600094E00E942405FFCF68EE73E080E090E009
:100170000E94000264E771E084E294E00E9424059A
:1001800002EC11E01A83098380911104909112040A
:10019000A0911304B09114048B839C83AD83BE8320
:1001A00040E550E0BE016F5F7F4F82E094E00E9427
:1001B0009607892B99F06AE371E084E294E00E944B
:1001C000240564E471E082E094E00E9424056DE976
:1001D00071E082E094E00E94240511C060E671E0C5
:1001E00084E294E00E94240562E771E084E294E0F6
:1001F0000E94240510920D0210920C02C3CF269685
:100200000FB6F894DEBF0FBECDBFDF91CF911F9127
:100210000F91089584E294E00E940E0562E871E077
:1002200084E294E00E94240561E971E084E294E0B4
:100230000E94050560910C0270910D024AE050E0A9
:1002400084E294E00E94F40582E094E00E94530767
:100250006EE971E084E294E00E9424056EE072E0B1
:1002600084E294E00E9405056AEA71E084E294E089
:100270000E942405FFCFCF9382E094E00E9486067F
:10028000892BC1F082E094E00E946B06C82F682F92
:1002900084E294E00E94070520910C0230910D0247
:1002A000F901E25FFD4FC0832F5F3F4F30930D0296
:1002B00020930C0282E094E00E942F07811102C07B
:1002C0000E940A01CF9108950F9300E020E040E0E2
:1002D00060E085E194E00E94880403E320E048EABE
:1002E00060EC8FE094E00E94880482E094E00F913B
:1002F0000C9410071F920F920FB60F9211242F9398
:100300003F938F939F93AF93BF9380911B049091E2
:100310001C04A0911D04B0911E0430912304232FCE
:100320002D5F2D3720F40196A11DB11D05C0232F8F
:100330002A570296A11DB11D2093230480931B040C
:1003400090931C04A0931D04B0931E0480911F047D
:1003500090912004A0912104B09122040196A11D46
:10036000B11D80931F0490932004A0932104B093A7
:100370002204BF91AF919F918F913F912F910F9048
:100380000FBE0F901F9018950F931F938FB7F8947F
:1003900000911B0410911C0420911D0430911E0437
:1003A0008FBFB801C9011F910F9108950F931F933B
:1003B0009FB7F89400911F0410912004209121040C
:1003C0003091220486B5A89B06C08F3F21F00F5FB5
:1003D0001F4F2F4F3F4F9FBF322F212F102F00272E
:1003E000080F111D211D311D42E0000F111F221F9A
:1003F000331F4A95D1F7B801C9011F910F91089594
:10040000CF92DF92EF92FF92CF93DF936B017C014B
:100410000E94D601EB010EC00E94D6016C1B7D0B21
:10042000683E734038F081E0C81AD108E108F1084D
:10043000C851DC4FC114D104E104F10469F7DF9124
:10044000CF91FF90EF90DF90CF900895789484B58E
:10045000826084BD84B5816084BD85B5826085BDC0
:1004600085B5816085BDEEE6F0E0808181608083A6
:10047000E1E8F0E010828081826080838081816089
:100480008083E0E8F0E0808181608083E1EBF0E050
:10049000808184608083E0EBF0E0808181608083F4
:1004A000EAE7F0E0808184608083808182608083DD
:1004B0008081816080838081806880831092C10008
:1004C0000895FC0184859585FC01E05CFF4F208147
:1004D0003181FC01EE5BFF4F80819181281B390B3C
:1004E0002F733327C9010895FC0184859585FC018C
:1004F000E05CFF4F40815181FC01EE5BFF4F2081AA
:1005000031814217530741F00190F081E02DE80F4F
:10051000F91F208130E002C02FEF3FEFC90108959D
:10052000FC0184859585FC01E05CFF4F4081518191
:10053000FC01EE5BFF4F208131814217530771F0C0
:10054000A081B181A80FB91F2C9180819181019662
:100550008F7399279183808330E002C02FEF3FEFA4
:10056000C9010895FC0186859785FC01E05CFF4F79
:10057000DC01AE5BBF4F408151812D913C911197C1
:1005800042175307C1F70895CF93DF93FC012685E7
:100590003785D901A05CBF4F8D919C911197019631
:1005A0008F739927E901CE5BDF4F4881598184170A
:1005B0009507D9F30D90BC91A02DA20FB31F6C939A
:1005C000A685B785A05CBF4F11969C938E93A68994
:1005D000B7892C9181E090E0058C02C0880F991FAB
:1005E0000A94E2F7282B2C9381E090E0DF91CF91E1
:1005F000089508951F920F920FB60F9211242F9312
:100600003F934F938F939F93EF93FF934091C60037
:100610008091C7049091C80401968F739927209107
:10062000C9043091CA048217930759F0E091C704B6
:10063000F091C804E957FB4F40839093C80480931E
:10064000C704FF91EF919F918F914F913F912F910F
:100650000F900FBE0F901F90189584E294E00E94B7
:100660006102892B11F00C94F90208951F920F92E8
:100670000FB60F9211242F933F938F939F93EF9375
:10068000FF9320918304309184048091850490919C
:1006900086042817390731F48091C1008F7D80933B
:1006A000C10014C0E0918504F0918604ED5BFB4F1E
:1006B0002081809185049091860401968F739927FB
:1006C00090938604809385042093C600FF91EF9158
:1006D0009F918F913F912F910F900FBE0F901F9080
:1006E0001895CF92DF92EF92FF92CF93DF93EC01B8
:1006F0006A017B01411581EE580761057105F9F02A
:10070000EC89FD8981E090E00E8C02C0880F991F72
:100710000A94E2F7808360E079E08DE390E0A7013E
:1007200096010E94EB192150310941095109569552
:10073000479537952795211580E1380798F0EC8982
:10074000FD89108260E874E88EE190E0A7019601CF
:100750000E94EB19215031094109510956954795DD
:1007600037952795E889F9893083EA89FB892083C1
:10077000EE89FF89408181E090E09C010A8C02C0F3
:10078000220F331F0A94E2F7422B4083EE89FF8940
:1007900040819C010B8C02C0220F331F0A94E2F7A8
:1007A000422B4083EE89FF8940819C010C8C02C062
:1007B000220F331F0A94E2F7422B4083EE89FF8910
:1007C00020810D8C02C0880F991F0A94E2F7809552
:1007D00082238083DF91CF91FF90EF90DF90CF90C5
:1007E000089581E00895109227041092260488EE5F
:1007F00093E0A0E0B0E08093280490932904A093B4
:100800002A04B0932B0482EB91E09093250480930B
:10081000240487E894E0909331048093300483E4C7
:1008200094E0909333048093320485EC90E09093AD
:1008300035048093340484EC90E0909337048093E3
:10084000360480EC90E0909339048093380481EC76
:1008500090E090933B0480933A0486EC90E0909370
:100860003D0480933C0484E080933E0483E08093C5
:100870003F0487E08093400485E08093410481E059
:10088000809342040895AF92BF92CF92DF92EF928D
:10089000FF920F931F93CF93DF936C017B01C0E016
:1008A000D0E000E010E0F601EC0FFD1F4AE050E060
:1008B0006281C7010E94A1055C016EE2C7010E942E
:1008C00007058A0D9B1D080F191F2196C330D105FE
:1008D00051F74AE050E0F6016581C7010E94A10589
:1008E000080F191FC801DF91CF911F910F91FF9041
:1008F000EF90DF90CF90BF90AF90089522EC31E061
:10090000FC013183208312821382148215820895A0
:100910000F93FC0182EC91E0918380836283438397
:10092000248305830F91089522EC31E0FC0131838B
:100930002083FB014081518162817381FC014283EC
:100940005383648375830895FC01DB014D915D91B0
:100950006D917C914283538364837583089582EC07
:1009600091E09093CC048093CB041092CD0410922C
:10097000CE041092CF041092D00408950E94260253
:100980000E948E00CDE2D3E00E943B012097E1F36C
:100990000E942D03F9CF0C942C18CF92DF92EF9286
:1009A000FF920F931F93CF93DF936C01EB017A01BA
:1009B000E60EF71E00E010E00BC06991D601ED9144
:1009C000FC910190F081E02DC6010995080F191FD7
:1009D000CE15DF0591F7C801DF91CF911F910F91DF
:1009E000FF90EF90DF90CF900895DB010D900020F5
:1009F000E9F7AD0141505109461B570BDC01ED9160
:100A0000FC910280F381E02D09940C94F504DC0143
:100A1000ED91FC910190F081E02D09940F931F93CB
:100A2000CF93DF93EC016DE00E9407058C016AE033
:100A3000CE010E9407059C01200F311FC901DF91E3
:100A4000CF911F910F9108950F931F93CF93DF9331
:100A5000EC010E94F5048C01CE010E940E05980164
:100A6000280F391FC901DF91CF911F910F91089570
:100A70005F926F927F928F929F92AF92BF92CF922E
:100A8000DF92EF92FF920F931F93CF93DF93CDB737
:100A9000DEB7A1970FB6F894DEBF0FBECDBF3C0105
:100AA0006A017B01522E19A281E0821710F08AE0C0
:100AB000582E8E010F5D1F4F852C912CA12CB12C2F
:100AC000C701B601A50194010E94EB198C2D529E1D
:100AD00080191124015011098A3014F4805D01C07D
:100AE000895CF801808369017A01C114D104E104B1
:100AF000F10431F7B801C3010E94F504A1960FB6C5
:100B0000F894DEBF0FBECDBFDF91CF911F910F9143
:100B1000FF90EF90DF90CF90BF90AF909F908F901D
:100B20007F906F905F9008952115310541F4DC01AD
:100B3000ED91FC910190F081E02D642F09940C94CB
:100B400038059A01462F50E060E070E00C9494055F
:100B5000CF92DF92EF92FF920F931F93CF93DF9389
:100B6000EC016A017B012115310579F4E881F981F5
:100B70000190F081E02D642FDF91CF911F910F91B3
:100B8000FF90EF90DF90CF9009942A30310519F44F
:100B900077FD0EC02AE0B701A601CE01DF91CF910B
:100BA0001F910F91FF90EF90DF90CF900C9438053C
:100BB0006DE20E9407058C0144275527BA014C19A4
:100BC0005D096E097F092AE0CE010E9438059C016B
:100BD000200F311FC901DF91CF911F910F91FF901D
:100BE000EF90DF90CF9008950F931F93CF93DF93F3
:100BF000EC019A01AB01662757FD6095762F0E94A4
:100C0000A8058C01CE010E940E059801280F391FFE
:100C1000C901DF91CF911F910F910895CF93DF9379
:100C20001F92CDB7DEB76983DC01ED91FC910280A4
:100C3000F381E02D41E050E0BE016F5F7F4F0995E9
:100C40000F90DF91CF910895CF93DF93EC0107C010
:100C5000E881F9810680F781E02DCE010995E881D0
:100C6000F9810480F581E02DCE010995892B81F76A
:100C7000DF91CF91089521E0FC018485843009F44F
:100C800020E0822F08950F931F93CF93DF931F923D
:100C9000CDB7DEB78C01DC01ED91FC910480F581CC
:100CA000E02D0995892B51F0BE016F5F7F4FF80150
:100CB00084850E94240C298130E002C02FEF3FEF91
:100CC000C9010F90DF91CF911F910F910895FC0101
:100CD00084850C94E50BCF93DF931F92CDB7DEB7DD
:100CE00041E050E0BE016F5F7F4FFC0184850E94B0
:100CF000E50B181619061CF4298130E002C02FEF0D
:100D00003FEFC9010F90DF91CF910895FC016485F9
:100D1000643021F085EF94E00C94EC0D80E090E0DD
:100D200008950F931F93CF93DF938C01EA01FC0189
:100D30008485843019F481E090E007C00E94920B12
:100D4000892B39F481E090E0F80193838283C0E03D
:100D5000D0E0CE01DF91CF911F910F910895CF92F6
:100D6000DF92EF92FF920F931F93CF93DF93CDB754
:100D7000DEB7E5970FB6F894DEBF0FBECDBF7C019E
:100D80008B016A01CE0101960E947E04CE01099674
:100D90000E943F0ACE01C0960E947E0467ED74E077
:100DA000CE018A960E94B708BE01665D7F4FCE01D4
:100DB00001960E943E14AE01405D5F4FB801CE0126
:100DC00001960E94A4169C0181309105C9F4D701B7
:100DD000ED91FC910484F585E02D82EC91E09DA3DA
:100DE0008CA30AA91BA92CA93DA90EA31FA328A760
:100DF00039A7A601BE016C5D7F4FC70109959C0113
:100E0000C901E5960FB6F894DEBF0FBECDBFDF91E6
:100E1000CF911F910F91FF90EF90DF90CF900895A9
:100E2000FC011382128248EE53E060E070E04483DC
:100E300055836683778388EC91E09183808384E097
:100E400084870895FC018485843039F0382F20E0B0
:100E5000C9018D5F9B4F0C944B0D80E00895CF939B
:100E6000DF93EC018C858430D1F0CE010E94220703
:100E7000843181F0882371F0883161F08C3161F424
:100E8000E881F9810480F581E02DCE01099521E00A
:100E9000892B19F420E001C021E0822F01C080E0FD
:100EA000DF91CF910895CF92DF92EF92FF92CF938F
:100EB000DF93EC018C85843091F10E948B0B0E94B2
:100EC000C4016B017C01CE010E9422078823D1F06E
:100ED0000E94C4016C197D098E099F09683E734008
:100EE00081059105A8F00EC08C850E94060BEC854B
:100EF000F0E0EE0FFF1FE152FB4F1182108284E001
:100F00008C870DC0CE010E942207882381F3ECCF8D
:100F100061E070E080E090E00E940002D4CFDF91B9
:100F2000CF91FF90EF90DF90CF900895AF92BF9256
:100F3000CF92DF92EF92FF920F931F93CF93DF93A5
:100F4000EC015B016A018C85843009F04EC093E0AE
:100F5000E92E94E0F92E00E010E0C7010E944B0D4D
:100F6000811102C00C870AC08831E1F38C31D1F3C2
:100F70000F5F1F4FF3940430110579F78C8584308F
:100F8000A1F120911001309111012F5F3F4F09F025
:100F900002C020E034E03093110120931001409111
:100FA00010015091110120E061E00E94140BB50185
:100FB0006E5F7F4FA6018C850E94550B09C061E0D2
:100FC00070E080E090E00E940002CE010E942207C3
:100FD000811103C084E08C8708C0CE010E942207E3
:100FE000873169F721E030E002C020E030E0C9013C
:100FF000DF91CF911F910F91FF90EF90DF90CF90F5
:10100000BF90AF9008950F9300E020E040E060E0D3
:1010100081ED94E00E9488040F91089544E050E02F
:10102000BC0181E090E00C941C0D44E050E0BC0158
:1010300085E090E00C941C0D44E050E0BC018FE092
:1010400090E00C941C0DAF92BF92CF92DF92EF9282
:10105000FF920F931F93CF93DF93CDB7DEB76E97B9
:101060000FB6F894DEBF0FBECDBF6C015B0182E608
:1010700090E00E94CB048C0182E6F80111928A95DF
:10108000E9F7C801895B9F4F0E943F0AF601178369
:10109000068385EF94E00E94DE0C46E050E0B50147
:1010A00089E090E00E941C0D00E020E040E060E05C
:1010B000CE0149960E948804CE014B960E941C08DE
:1010C00010EAE12E1FE0F12E00E010E020E63AEEFB
:1010D00040E050E0B501F601868197810E94EE1351
:1010E0008C018130910589F5F60166817781CE0109
:1010F00043960E940D11CE0145960E941C08F601F0
:1011000066817781CE010D960E942311CE010F9644
:101110000E940E08F60166817781CE0107960E9433
:101120001811CE0109960E941508F6016681778193
:10113000CE0101960E942E114B815C816D817E81D2
:10114000F6014283538364837583C8016E960FB69C
:10115000F894DEBF0FBECDBFDF91CF911F910F91ED
:10116000FF90EF90DF90CF90BF90AF90089522EC6A
:1011700031E0FC0131832083FB0142815381648192
:101180007581FC01428353836483758308950F93B3
:1011900000E020E040E060E087EE94E00E948804F8
:1011A00087ED94E00F910C947E04DC01ED91FC91AD
:1011B000008CF18DE02D099422EC31E0FC013183AB
:1011C0002083FB014189528963897489FC01428330
:1011D0005383648375830895FC01858996890895F6
:1011E000FC01818D928D0895CF93DF931F92CDB72F
:1011F000DEB76983DC01ED91FC910280F381E02D83
:1012000041E050E0BE016F5F7F4F09950F90DF9185
:10121000CF910895CF93DF93EC0107C0E881F98166
:101220000680F781E02DCE010995898D9A8D892B55
:10123000A9F7DF91CF910895CF93DF931F92CDB798
:10124000DEB7FC01218D328D232B49F0BE016F5F8B
:101250007F4F84850E94240C298130E002C02FEF4B
:101260003FEFC9010F90DF91CF910895CF93DF93A6
:10127000EC01898D9A8D009719F42FEF3FEF11C083
:101280004817590708F0AC018C850E94E50B9C01BA
:101290001816190694F7898D9A8D821B930B9A8FD5
:1012A000898FC901DF91CF9108950F931F93CF9339
:1012B000DF931F92CDB7DEB78C01FC01818D928D3B
:1012C000892B59F041E050E0BE016F5F7F4F84856C
:1012D0000E94E50B181619061CF02FEF3FEF08C00F
:1012E000F801818D928D0197928F818F298130E055
:1012F000C9010F90DF91CF911F910F910895CF9366
:10130000DF93EC019A018F89988DAB01BC018C852C
:101310000E94320C9C018F89988D820F931F988FA9
:101320008F8BC901DF91CF910895FC0184850C94C6
:101330008E0CFC01108E178A6E5F7F4F84850C9493
:10134000680CCF93DF93EC018C85843061F00E94B0
:10135000060BEC85F0E0EE0FFF1FE152FB4F118210
:10136000108284E08C87DF91CF9108950F931F93B3
:10137000CF93DF93CDB7DEB728970FB6F894DEBFD3
:101380000FBECDBF8C01DC01ED91FC910284F38591
:10139000E02D0995F801648585EF94E00E94EC0D3D
:1013A000892B29F148E050E0BE016F5F7F4FD801E3
:1013B0001C968C910E94E50B9C0118161906CCF422
:1013C000BE016F5F7F4FC8010F960E94A4049D81EC
:1013D00080E02E81820F911DF801968B858B3F81D5
:1013E00020E08885280F311D328F218F02C020E038
:1013F00030E0C90128960FB6F894DEBF0FBECDBF0E
:10140000DF91CF911F910F910895CF92DF92EF92CC
:10141000FF920F931F93CF93DF93EC016B018C85A9
:10142000843019F593E0E92E94E0F92E00E010E005
:10143000C7010E944B0D811102C00C8708C0883182
:10144000E1F30F5F1F4FF3940430110589F78C858A
:10145000843059F0DE86CD861A8E198E20E0A601E2
:1014600062E00E94140B81E001C080E0DF91CF9127
:101470001F910F91FF90EF90DF90CF900895FC01A6
:101480001382128248EE53E060E070E0448355839B
:101490006683778384EE91E09183808384E0848700
:1014A000CF010F960C947E04CF92DF92EF92FF92C1
:1014B0000F931F93CF93DF93CDB7DEB7E5970FB6AA
:1014C000F894DEBF0FBECDBF7C018B016A01CE0157
:1014D00001960E947E04CE0109960E943F0ACE0129
:1014E000C0960E947E0467ED74E0CE018A960E9449
:1014F000B708BE01665D7F4FCE0101960E943E1483
:10150000AE01405D5F4FB801CE0101960E94A41666
:101510009C0181309105C9F4D701ED91FC910088BF
:10152000F189E02D82EC91E09DA38CA30AA91BA96F
:101530002CA93DA90EA31FA328A739A7A601BE0168
:101540006C5D7F4FC70109959C01C901E5960FB6F7
:10155000F894DEBF0FBECDBFDF91CF911F910F91E9
:10156000FF90EF90DF90CF9008950F9300E020E080
:1015700040E060E08DEE94E00E9488040F910895B1
:10158000382F20E044E050E0C901845F9B4F0C9469
:101590001C0D90E00496982F8827860F971F0C94B7
:1015A0004B0D62E070E00C94C90A9B0190E0049638
:1015B000982F8827642F820F931F0C94BC0C462F02
:1015C00062E070E00C94D50ACF93DF93C82FD62F3A
:1015D000472F60E170E00E94D50A4D2F61E170E075
:1015E0008C2FDF91CF910C94D50ACF93DF93C82F26
:1015F000D62F472F64E070E00E94D50A4D2F65E09A
:1016000070E08C2FDF91CF910C94D50ACF93C82F27
:1016100040E150E0682F85EF94E00E94F40E6FEFF8
:101620008C2FCF910C94DF0AEF92FF921F93CF93F0
:10163000DF9300D0CDB7DEB7182F7A01862F815007
:10164000853050F5812F2A8369830E94060B2A81F9
:101650006981422F462B60E070E0812F0E94D50AFD
:10166000E114F10411F0B7010BC02091F3043091A3
:10167000F404B9016F5F7F4F7093F4046093F30437
:10168000812F0E94F50A41E050E0612F85EF94E040
:101690000E94F40E81E001C080E00F900F90DF9176
:1016A000CF911F91FF90EF9008951F93CF93DF93F9
:1016B000182FFB01EA0180818F3F51F481818F3F18
:1016C00091F482818F3F79F483818F3F61F41EC052
:1016D000811109C08181811106C08281811103C0FD
:1016E0008381882399F0209789F0BF01812F0E9480
:1016F000C00ABE01812F0E94E40A44E050E0612F3D
:1017000085EF94E00E94F40E81E001C080E0DF915B
:10171000CF911F91089548E050E0682F85EF94E045
:101720000C94F40EDF92EF92FF920F931F93CF93DE
:10173000DF93D82E8B01EA01413088E0580710F082
:10174000C0E0D8E06D2D85EF94E00E941C0E7C0176
:1017500063E070E08D2D0E94C90A873111F08C3151
:1017600021F4EC16FD0670F302C0C0E0D0E09E014B
:10177000A8016D2D85EF94E00E94CD0D40E250E070
:101780006D2D85EF94E00E94F40E0DC063E070E0D3
:101790008D2D0E94C90A811106C08D2D0E94060B55
:1017A000C0E0D0E009C08D2D0E94D10A84FFEECFA9
:1017B00060E18D2D0E94DF0ACE01DF91CF911F9154
:1017C0000F91FF90EF90DF900895DF92EF92FF92DC
:1017D0000F931F93CF93DF93D82E7B018A01682F3D
:1017E00085EF94E00E94EC0DEC01009771F463E04A
:1017F00070E08D2D0E94C90A8431E9F08823D9F068
:101800008C31C9F0CFEFDFEF16C0081719070CF4C1
:10181000E8011C161D067CF400E09E01A7016D2D59
:1018200085EF94E00E94A40E40E450E06D2D85EF1A
:1018300094E00E94F40ECE01DF91CF911F910F91A1
:10184000FF90EF90DF9008950F93AB0101E021E04E
:1018500030E0682F85EF94E00E94A40E81E090E0D4
:101860000F910895AF92BF92CF92DF92EF92FF92C5
:101870000F931F93CF93DF93B82E7B016A01E90189
:10188000682F85EF94E00E941C0E8C179D0740F492
:101890006B2D85EF94E00E941C0EA82EC92F02C06C
:1018A000AC2ECD2F0A2D1C2F9601A7016B2D85EF95
:1018B00094E00E946B0D8A2D9C2FDF91CF911F9198
:1018C0000F91FF90EF90DF90CF90BF90AF90089571
:1018D0001F93CF93DF93182FFB01EA0180818111C1
:1018E00009C08181811106C08281811103C0838179
:1018F000882369F0209759F0BF01812F0E94C00A08
:10190000BE01812F0E94E40A21E030E002C020E005
:1019100030E0C901DF91CF911F910895CF93C82F77
:1019200040E250E0682F85EF94E00E94F40E0CC076
:101930008C2F0E94D10A83FF07C068E18C2F0E9480
:10194000DF0A20E030E00BC08C2F0E94D10A84FF18
:10195000EFCF60E18C2F0E94DF0A21E030E0C90167
:10196000CF9108958EBD0DB407FEFDCF8EB50895BD
:101970002A9808952A9A08951F93CF93DF9300D051
:10198000CDB7DEB7182F6A8399830E94B80C80EF19
:101990000E94B20C9981892F0E94B20C812F0E9463
:1019A000B20C6A81862F0E94B20C0E94BA0C81E0B0
:1019B0000F900F90DF91CF911F910895CF93DF93F8
:1019C000EC016CE271E080E090E00E9400020E9475
:1019D000040F229A60E880E090E00E94BC0C65E56C
:1019E0008BE190E00E94BC0C65E58AE190E00E94EA
:1019F000BC0C80E090E49983888380E090E699872E
:101A0000888780E098E49B838A8380E098E69B87C0
:101A10008A8780E090E59D838C8380E090E79D87B6
:101A20008C8780E098E59F838E8380E098E79F878E
:101A30008E87DF91CF910895CF92DF92EF92FF9240
:101A40000F931F93CF93DF93EC017A018B016A010F
:101A5000C80ED91E13C00E94B80C80EF0E94B20CB1
:101A60008D2F0E94B20C8C2F0E94B20C2196F8018F
:101A700081918F010E94B20C0E94BA0CCC15DD0539
:101A800051F7C701DF91CF911F910F91FF90EF9018
:101A9000DF90CF9008951F93CF93DF931F92CDB720
:101AA000DEB7182F99830E94B80C8FE00E94B20C09
:101AB0009981892F0E94B20C812F0E94B20C80E084
:101AC0000E94B20C89830E94BA0C89810F90DF9129
:101AD000CF911F9108958F929F92AF92BF92CF9214
:101AE000DF92EF92FF920F931F93CF93DF937C01CE
:101AF000962EEA01590164E270E0892D0E94C90A1C
:101B0000882E65E270E0892D0E94C90AD82CC12C6C
:101B1000C82ACC0EDD1E9601377062E0969EE00C5E
:101B2000F11C1124F70180819181820F931FA9017B
:101B3000400F511F4130584090F0C0E0D8E0C21B28
:101B4000D30BAE01B5010E941C0DA8014C1B5D0B0F
:101B5000B5016C0F7D1FF7018081918102C0A80142
:101B6000B5010E941C0D0C0D1D1D412F64E270E09B
:101B7000892D0E94D50A402F65E270E0892DDF9102
:101B8000CF911F910F91FF90EF90DF90CF90BF907A
:101B9000AF909F908F900C94D50A0F931F9389015B
:101BA0009A0140E050E00E946B0D1F910F91089543
:101BB000CF93DF93C82F66E270E00E94C90AD82F46
:101BC00067E270E08C2F0E94C90A3D2F20E0282B8D
:101BD000C901DF91CF910895FF920F931F93CF9387
:101BE000DF93F62EC0E0D0E08F2D0E94D80D8C013F
:101BF000009721F08F2D0E94D80DEC01C017D1075E
:101C000099F7CE01DF91CF911F910F91FF90089529
:101C1000CF93DF93C82F60E270E00E94C90AD82FEB
:101C200061E270E08C2F0E94C90A3D2F20E0282B32
:101C3000C901DF91CF910895FF920F931F93CF9326
:101C4000DF93F62EC0E0D0E08F2D0E94080E8C01AD
:101C5000009721F08F2D0E94080EEC01C017D107CC
:101C600099F7CE01DF91CF911F910F91FF900895C9
:101C7000CF92DF92EF92FF920F931F93CF93DF9358
:101C8000EC017A018B016A01C80ED91E14C00E94B2
:101C9000B80C8FE00E94B20C8D2F0E94B20C8C2FDA
:101CA0000E94B20C219680E00E94B20CF801819350
:101CB0008F010E94BA0CCC15DD0549F7C701DF91F1
:101CC000CF911F910F91FF90EF90DF90CF900895EB
:101CD000CF92DF92EF92FF920F931F93CF93DF93F8
:101CE000690157707C0122E0629FE00CF11C112415
:101CF00088E0E80EF11CF70180819181840F951F27
:101D00009801240F351F2130384090F0C0E0D8E012
:101D1000C41BD50BAE01B6010E94380EA8014C1BA6
:101D20005D0BB6016C0F7D1FF7018081918102C0B0
:101D3000A801B601DF91CF911F910F91FF90EF9015
:101D4000DF90CF900C94380E8F929F92AF92BF92FB
:101D5000CF92DF92EF92FF920F931F93CF93DF9377
:101D60006C01962E5A01E901802E68E270E0892DFF
:101D70000E94C90AF82E69E270E0892D0E94C90A02
:101D8000FF2DE0E07F01E82A8E019501A701692D72
:101D9000C6010E94680E81101AC0CE0DDF1D4D2FA6
:101DA00068E270E0892D0E94D50A4C2F69E270E04C
:101DB000892DDF91CF911F910F91FF90EF90DF90D0
:101DC000CF90BF90AF909F908F900C94D50ADF91E9
:101DD000CF911F910F91FF90EF90DF90CF90BF9028
:101DE000AF909F908F900895CF93C62F61E070E0E1
:101DF0008C2F0E94D50A61E070E08C2F0E94C90AE6
:101E00008111F9CFCF91089561E08DE00E947317A1
:101E100061E08BE00E94731761E08AE00E94731713
:101E200060E08DE00E94AB1760E08BE00E94AB1792
:101E300061E08AE00E94AB178CB580618CBD8CB5E7
:101E400080648CBD08950E96FC0184E1DF011D9233
:101E50008A95E9F708952F923F924F925F926F9281
:101E60007F928F929F92AF92BF92CF92DF92EF922A
:101E7000FF920F931F93CF93DF93CDB7DEB7E29717
:101E80000FB6F894DEBF0FBECDBF8C012A013B0117
:101E90003AA729A70E94C4014B015C01180187E4FD
:101EA000280E311C12C00E94C401681979098A09E0
:101EB0009B09461657066806790608F476C162E360
:101EC00070E080E090E00E940002C1010E94B6092B
:101ED0001816190644F742E250E0BE016F5F7F4FCB
:101EE000C1010E9436098981823009F059C1F1018E
:101EF000858996898334910509F45AC151C1F80145
:101F000080819181A281B381C816D906EA06FB06B9
:101F100048F084819581A681B7818C159D05AE0519
:101F2000BF0528F4C1010E940A09912C5CC189896E
:101F30009A89AB89BC89F80186879787A08BB18B7A
:101F40008EECE82EF12CC1010E945509F1E0EF1A48
:101F5000F108C9F7912CC80182969AA789A7380180
:101F600096E2690E711C2801EAE24E0E511CC8016E
:101F7000885A9F4F9CA78BA758019AE1A90EB11CC4
:101F8000F8017296FEA7EDA7C801469698AB8FA7F9
:101F9000F8017E96FAABE9ABFBC0C1010E9455097E
:101FA0008333910509F4CBC07CF48130910549F16C
:101FB00024F4892B09F4ECC0DCC08330910549F18D
:101FC000069709F0D6C041C08A33910509F48DC047
:101FD0003CF48533910569F0C69709F0CAC051C039
:101FE0008B33910509F496C08F3F910509F0C1C06C
:101FF000CFC0C1010E945509C1010E945509982E08
:10200000C7C0C1010E94550944E050E06DA57EA5FE
:1020100048C0C1010E9455096C0144E050E06FA521
:1020200078A9C1010E943609E12CF12CDD24F4E0ED
:10203000CF1AD10806C0C1010E9455098FEFE81AD6
:10204000F80AEC14FD04BCF3A3C0C1010E945509B9
:102050006C0144E050E069A97AA9C1010E943609E7
:10206000E12CF12CDD2494E0C91AD10806C0C1018D
:102070000E945509EFEFEE1AFE0AEC14FD04BCF3C2
:1020800087C0C1010E945509882EF801828D938D69
:10209000A48DB58D892B8A2B8B2B39F444E050E02D
:1020A000B501C1010E94360973C0EBA5FCA5C08033
:1020B000D180E280F380B501CE0183960E94940422
:1020C0008DA19EA1AFA1B8A58C159D05AE05BF053C
:1020D00029F3E12CF12C06C0C1010E945509FFEF44
:1020E000EF1AFF0A8E10F8CF53C0C1010E945509A4
:1020F00044E050E0B301C1010E943609F80166A135
:1021000077A180A591A50E94441A66A377A380A712
:1021100091A73EC0C1010E94550944E050E0B201C0
:10212000C1010E943609F80162A573A584A595A591
:102130000E94441A62A773A784A795A729C0C1016A
:102140000E94550944E050E069A57AA5C1010E94AA
:102150003609F80162A173A184A195A10E94441AD5
:1021600062A373A384A395A366A777A780AB91AB63
:102170000FC0C1010E945509D82EE12CF12C06C0D8
:10218000C1010E945509FFEFEF1AFF0ADE10F8CFD8
:10219000C1010E94F008181619060CF4FECE01C009
:1021A000912CC1010E940A091EC099249A941BC057
:1021B0006D817E818F8198850E94441A6B017C011C
:1021C000E9A5FAA56083718382839383B801685F70
:1021D0007F4F46E050E0CE014D960E94C419009713
:1021E00009F48DCE9FCE892DE2960FB6F894DEBF0E
:1021F0000FBECDBFDF91CF911F910F91FF90EF9058
:10220000DF90CF90BF90AF909F908F907F906F9016
:102210005F904F903F902F900895CF93DF93EC0104
:10222000625F7F4F0E949404CE01DF91CF910895A9
:10223000CF93DF93EC016E5E7F4F0E949404CE013A
:10224000DF91CF910895CF93DF93EC016A5E7F4FCA
:102250000E949404CE01DF91CF910895CF93DF9334
:10226000EC01625E7F4F0E949404CE01DF91CF911A
:10227000089580E3FB0180833296842F82958F70CE
:1022800090E1899F401911244A3014F4405D01C047
:10229000495C4293482F8111F0CF08955F926F926D
:1022A0007F928F929F92AF92BF92CF92DF92EF92E6
:1022B000FF920F931F93CF93DF93CDB7DEB7AC9709
:1022C0000FB6F894DEBF0FBECDBF7C01862EB42EB4
:1022D000A52E30E2932ECC24C394D12CCC0EDD1E3F
:1022E000F601292D11922A95E9F70FEF2FEF4FEF05
:1022F0006FEFCE0187960E94880482EC91E09AA34A
:1023000089A309A51AA52BA53CA50BA31CA32DA346
:102310003EA38701095B1F4F43E450E0BE016F5DA0
:102320007F4FC8010E949909019609F4C1C081E05C
:1023300089838A8396E0592E5B821C82F70164812F
:102340007581868197810E94441A6D837E838F8375
:102350009887A986BA8680E890E09C878B874CE1B5
:1023600050E0B601C8010E947F09F601292D1192A3
:102370002A95E9F7370188E0680E711CF301D60150
:1023800001900D925A94E1F740E150E0B601C80186
:102390000E947F09F60111929A94E9F726E0A22E95
:1023A000B12C40E250E0B601C8010E947F09F1E083
:1023B000AF1AB108B1F783E6898392E89A8393E56F
:1023C0009B838C8385E38D8381E08E838F829DE365
:1023D000988797E099878A8786E0F301DE011B964C
:1023E00001900D928A95E1F78CE0898B8A8B64E0ED
:1023F00072E0CE0143960E94D119F7014385BE01D8
:10240000675E7F4FC7010E943911F7014485BE0105
:10241000655E7F4FC7010E943911F7014585BE01F6
:10242000635E7F4FC7010E9439114EE150E0B60153
:10243000C8010E947F09F3E08F121EC082E38983E6
:1024400084E08A83F70196859B8397859C83908996
:102450009D8391899E8396E39F838887828D898758
:10246000838D8A87848D8B87858D8C874CE050E0A7
:10247000B601C8010E947F0987E3898386E08A83C9
:1024800091E09B8393E09C838D838FE08E838AE32E
:102490008F838BE388878FEF898749E050E0BE0107
:1024A0006F5F7F4FC8010E947F09C8010E94950994
:1024B000AC960FB6F894DEBF0FBECDBFDF91CF91C3
:1024C0001F910F91FF90EF90DF90CF90BF90AF9052
:1024D0009F908F907F906F905F9008952F923F9282
:1024E0004F925F926F927F928F929F92AF92BF9224
:1024F000CF92DF92EF92FF920F931F93CF93DF93D0
:10250000CDB7DEB72B970FB6F894DEBF0FBECDBFA9
:102510008C0120ED37E040E050E061E070E080E0C9
:1025200090E00E940E18F801648375838683978378
:102530006083718382839383C801895B9F4F9987EE
:10254000888764E470E00E94050A882309F42AC1A0
:102550000E94C4016B017C01212C312C1D82F801E9
:10256000EA5BFF4FFF83EE83C801CE969B878A8785
:1025700044E8442E43E0542E612C712C58EE852EF5
:1025800053E0952EA12CB12CF5C081111EC0F8018D
:1025900044815581668177814F5F5F4F6F4F7F4FD9
:1025A00044835583668377830E94C4016C197D0937
:1025B0008E099F09A50194010E94EB19A90161E010
:1025C000C8010E944E1181E01FC0843009F5F80156
:1025D00044815581668177814F5F5F4F6F4F7F4F99
:1025E00044835583668377830E94C4016C197D09F7
:1025F0008E099F09A50194010E94EB19A90163E0CE
:10260000C8010E944E1182E0EE81FF81808397C055
:10261000813069F5EA85FB85408151816281738152
:102620009E012F5F3F4FC8010E942B0F8D83823088
:1026300009F085C089819A81AB81BC81F8018483CE
:102640009583A683B7830E94C4016C197D098E0906
:102650009F09A50194010E94EB19A90163E0C8013B
:102660000E944E118D81EE81FF8180836FC0823088
:1026700009F065C0EA85FB854081518162817381E3
:102680009E012F5F3F4FC8010E942B0F8D83853025
:1026900009F04EC083E0EE81FF818083F80182A1C2
:1026A00093A1A4A1B5A1892B8A2B8B2B21F442A243
:1026B00053A264A275A2F80186A197A1A0A5B1A515
:1026C000892B8A2B8B2B61F442A153A164A175A1A4
:1026D000769567955795479546A357A360A771A729
:1026E000F80182A593A5A4A5B5A546A157A160A50B
:1026F00071A5892B8A2B8B2B51F4DB01CA01880F22
:10270000991FAA1FBB1F82A793A7A4A7B5A7F8016B
:1027100046A757A760AB71AB82A593A5A4A5B5A5A5
:1027200082AB93ABA4ABB5AB22242394312C0EC067
:10273000FD81F63021F4EE81FF81108207C0FD811A
:10274000FF3F21F4EE81FF8110821D82F1E02F1600
:10275000310481F00E94C4016C197D098E099F0922
:10276000F80122AD33AD44AD55AD26173707480704
:10277000590730F0EE81FF818081833009F005CF69
:10278000888599850E94A109F80144815581668157
:1027900077814F5F5F4F6F4F7F4F448355836683D1
:1027A000778302C0212C312CC1012B960FB6F894EF
:1027B000DEBF0FBECDBFDF91CF911F910F91FF9074
:1027C000EF90DF90CF90BF90AF909F908F907F90D1
:1027D0006F905F904F903F902F900895CF92DF922F
:1027E000EF92FF920F931F93CF93DF93EC016B0156
:1027F0001AA21BA21CA21DA21EA21FA218A619A6E5
:102800001AA61BA61CA61DA61EAA1FAA18AE19AEA4
:102810002AAF3BAF4CAF5DAFFC01FE96E082F18288
:10282000028313838C01085F1F4F86E0F801119229
:102830008A95E9F7CE010E94230F86E0F601D801C0
:1028400001900D928A95E1F7FE01EA5BFF4F10823D
:10285000CE01DF91CF911F910F91FF90EF90DF900C
:10286000CF900C946E120F9300E020E040E060E007
:1028700085E095E00E9488040F910895FB01428154
:10288000538164817581FC01428353836483758322
:10289000178216820895CF93FB01DB018D91811180
:1028A000FDCF80E090E020E030E0CAE01BC08F3F29
:1028B000910509F064F5DA01A20FB31F12968C930B
:1028C0002F5F3F4F80E090E00DC0DC01CA9FC00148
:1028D000CB9F900D1124772767FD70956053710988
:1028E000860F971F6191662321F02430310594F003
:1028F0000EC08F3F910509F054F4243031053CF4AB
:10290000FA01E20FF31F828321E030E006C020E0ED
:1029100030E003C06E32C9F6CACFC901CF91089525
:10292000AF92BF92CF92DF92EF92FF920F931F93DD
:10293000CF93DF9300D01F92CDB7DEB77C015B0150
:102940000E94C401F701778366838701085F1F4FE8
:10295000B7016A5F7F4F42E050E0C8010E947F09E3
:1029600081E090E09A83898342E050E0BE016F5F8E
:102970007F4FC8010E947F0980E091E09A8389839C
:1029800042E050E0BE016F5F7F4FC8010E947F09A7
:102990001A82198242E050E0BE016F5F7F4FC8018A
:1029A0000E947F0942E050E0BE016F5F7F4FC80187
:1029B0000E947F0942E050E0BE016F5F7F4FC80177
:1029C0000E947F097501650121C0F6017F01819197
:1029D000811107C05701AC18BD081A141B0424F05C
:1029E00011C08E3299F7F6CFAB8241E050E0BE01C4
:1029F0006D5F7F4FC8010E947F09A501B601C80124
:102A00000E947F096701FFEFCF1ADF0AF70180817B
:102A10008111DBCF1B8241E050E0BE016D5F7F4F33
:102A2000C8010E947F09E12CFF24F394FA82E98215
:102A300042E050E0BE016F5F7F4FC8010E947F09F6
:102A4000FA82E98242E050E0BE016F5F7F4FC80129
:102A50000E947F0981E090E00F900F900F90DF912E
:102A6000CF911F910F91FF90EF90DF90CF90BF908B
:102A7000AF9008952F923F924F925F926F927F9204
:102A80008F929F92AF92BF92CF92DF92EF92FF927E
:102A90000F931F93CF93DF93CDB7DEB763970FB636
:102AA000F894DEBF0FBECDBF2C014B011A010E946E
:102AB000C4016B017C01320128E0620E711CA12C63
:102AC000B12C12C00E94C4016C197D098E099F09A6
:102AD00086169706A806B90608F40DC162E370E0F1
:102AE00080E090E00E940002C3010E94B60918161F
:102AF000190644F7F201C280D380E480F580018D8D
:102B0000128D238D348DC016D106E206F30609F02E
:102B1000F5C0858D968DC59709F0F0C0F5C04CE0E5
:102B200050E0BE016F5F7F4FC3010E9436098B8169
:102B30009C819827892798279A8B898BF201468157
:102B4000578129813A814217530711F497FD06C036
:102B5000C3010E940A092CEF3FEFDCC08F70927016
:102B6000892B31F0C3010E940A092BEF3FEFD2C03D
:102B7000CF80D884DC24CD24DC24C114D10471F5A9
:102B8000C3010E940A092AEF3FEFC4C041E050E0B0
:102B9000BE01635F7F4FC3010E9436098D8581119D
:102BA00007C08D858111F2CF0AC0C3010E9455096B
:102BB0008D85982F91509D878111F7CFF2CFC3015A
:102BC0000E945509C3010E945509C3010E9455097D
:102BD000C3010E9455090F5F1F4F02C000E010E0C3
:102BE0008D819E819827892798270817190770F2E9
:102BF000E12CF12C41E050E0BE016D5E7F4FC3013E
:102C00000E9436098B89982F907C69F4811104C049
:102C10000EC0C3010E9455098B89982F91509B8B40
:102C20008111F7CF04C0C3010E9455091B8A8B890B
:102C30008111E0CF42E050E0BE01615F7F4FC301F0
:102C40000E94360942E050E0BE01635F7F4FC3013E
:102C50000E943609C3010E945509C3010E9455090B
:102C6000C3010E945509C3010E94550942E050E08A
:102C7000BE016F5E7F4FC3010E9436098F85988920
:102C80008115914009F58D859E8581159140E1F46E
:102C900089899A898115944031F0C3010E940A09FB
:102CA00027EF3FEF37C0B1016E5F7F4F44E050E048
:102CB000C3010E94360921E030E02CC0C3010E940C
:102CC00055090F5F1F4F02C000E010E089899A8903
:102CD0009827892798270817190780F3FFEFEF1A1D
:102CE000FF0AEC14FD0409F085CFC3010E940A0914
:102CF00026EF3FEF0FC02FEF3FEF0CC02EEF3FEF5F
:102D000009C02DEF3FEF06C0C3010E94F0080C97E9
:102D1000C4F305CFC90163960FB6F894DEBF0FBEAA
:102D2000CDBFDF91CF911F910F91FF90EF90DF907A
:102D3000CF90BF90AF909F908F907F906F905F905B
:102D40004F903F902F9008956F927F928F929F9215
:102D5000AF92BF92CF92DF92EF92FF920F931F93A9
:102D6000CF93DF9300D000D000D0CDB7DEB75C01A9
:102D70004B013A010E944B14892B09F051C0F50117
:102D8000C280D380E480F58000910D0510910E057E
:102D900020910F0530911005C016D106E206F3060A
:102DA00009F441C00E94C4017501F8E0EF0EF11C66
:102DB0006F707727882799277C5FC7010E94050AD3
:102DC0008130A1F582EC91E09A838983F50102813B
:102DD0001381248135810B831C832D833E8345E33E
:102DE00050E0BE016F5F7F4FC7010E949909892B98
:102DF00019F400E010E010C0B401C5010E94901465
:102E0000892BB9F3C7010E949509892B91F4F1CF61
:102E10000F3FFFEF1F0781F0C7010E94A10918C0F3
:102E200001E010E015C00EEF1FEF12C000E010E04F
:102E30000FC093E0C92ED12CA30168E873E1C5014E
:102E40000E943A158C0121E0C21AD10829F3E0CF83
:102E5000C80126960FB6F894DEBF0FBECDBFDF9136
:102E6000CF911F910F91FF90EF90DF90CF90BF9087
:102E7000AF909F908F907F906F9008950F9300E098
:102E800020E040E060E08BE095E00E9488040F9134
:102E90000895833069F028F48130A1F0823011F573
:102EA00014C08630B1F08730C1F08430D9F404C04A
:102EB000809180008F7703C0809180008F7D809308
:102EC0008000089584B58F7702C084B58F7D84BD5E
:102ED00008958091B0008F7703C08091B0008F7DFE
:102EE0008093B0000895CF93DF9390E0FC01E45805
:102EF000FF4F4491FC01E057FF4F8491882341F13B
:102F000090E0880F991FFC01E255FF4F2591349105
:102F1000D9018C559F4FFC0185919491C82FD92FD1
:102F20009FB7F8948C91611106C0409584238C93CF
:102F30008881842308C0623041F4242F20958223A5
:102F40008C938881842B888302C0842B8C939FBFB1
:102F5000DF91CF9108950F931F93CF93DF931F922B
:102F6000CDB7DEB7282F30E0F901E859FF4F849143
:102F7000F901E458FF4F1491F901E057FF4F049114
:102F80000023D1F0882321F069830E9449176981C9
:102F9000E02FF0E0EE0FFF1FEC55FF4F859194916D
:102FA000DC019FB7F8948C91611103C010958123C7
:102FB00001C0812B8C939FBF0F90DF91CF911F9108
:102FC0000F9108950F931F93CF93DF9300D000D0FC
:102FD000CDB7DEB79B01AC01611571058105910587
:102FE00079F069833A834B835C830E94B31929810A
:102FF0003A814B815C810E940D1A8B019C0103C0B8
:1030000000E010E09801B801C9010F900F900F90F7
:103010000F90DF91CF911F910F910895CF92DF9282
:10302000EF92FF926B017C0162177307840795078B
:1030300064F4CA01B9016C197D098E099F090E94C7
:10304000E217C60ED71EE81EF91EB601C701FF9093
:10305000EF90DF90CF9008950F931F93CF93DF935E
:103060008230910510F482E090E0E0911305F09138
:10307000140520E030E0C0E0D0E023C04081518161
:1030800048175907A8F04817590761F482819381BE
:10309000209719F09B838A832EC090931405809308
:1030A000130529C02115310529F04217530710F0E7
:1030B000A90102C0BE01DF0102811381EF019A0163
:1030C000F8013097D9F62115310509F1281B390B84
:1030D0002430310590F412968D919C9113976115CF
:1030E000710521F0FB019383828304C09093140542
:1030F00080931305FD01329644C0FD01E20FF31FDA
:1031000081939193225031092D933C933AC02091A1
:10311000110530911205232B41F4209102013091C9
:103120000301309312052093110520910001309185
:1031300001012115310541F42DB73EB7409104013D
:1031400050910501241B350BE0911105F0911205FA
:10315000E217F307A0F42E1B3F0B2817390778F06E
:10316000AC014E5F5F4F2417350748F04E0F5F1FCD
:1031700050931205409311058193919302C0E0E0B2
:10318000F0E0CF01DF91CF911F910F910895EF9261
:10319000FF920F931F93CF93DF93009709F48EC094
:1031A000DC01129713961C921E921297E090130561
:1031B000F0901405E114F10489F42D913C911197DC
:1031C000280F391F809111059091120582179307DE
:1031D00089F5B0931205A093110570C0E70120E0B6
:1031E00030E001C0EA01CA17DB0738F44A815B818D
:1031F0009E0141155105B1F722C0AC014250510961
:10320000FA01D383C28300811181BC01600F711F59
:103210006C177D0761F468817981600F711F6E5FA3
:103220007F4F718360836A817B8173836283211501
:10323000310529F4B0931405A09313053FC0F9019B
:10324000B383A283E90149915991C40FD51FAC17EB
:10325000BD0771F4DC019E918E91840F951F02963B
:103260009183808312968D919C911397938382838F
:10327000A0E0B0E002C0D7017C01F7018281938118
:103280000097C9F7C701029620813181820F931FF1
:1032900020911105309112052817390779F41097FC
:1032A00029F4109214051092130504C013961C9271
:1032B0001E921297F0921205E0921105CDB7DEB77B
:1032C000E6E00C94351A8F929F92AF92BF92CF9204
:1032D000DF92EF92FF92CF93DF93EC0168817981C7
:1032E0008A819B81611571058105910521F464E254
:1032F00079ED8BE597E02DE133EF41E050E00E945E
:103300000D1A49015A019B01AC01A7EAB1E40E94E0
:10331000D8196B017C01ACEEB4EFA50194010E94B9
:10332000E619C60ED71EE81EF91EF7FE06C081E09C
:10333000C81AD108E10880E8F80AC882D982EA826E
:10334000FB82E894F7F8B601C701DF91CF91FF90B7
:10335000EF90DF90CF90BF90AF909F908F900895A7
:103360000E946319089586E091E00E946319089510
:1033700060930601709307018093080190930901FF
:103380000895F8940C945D1AFB01DC0104C08D9142
:103390000190801921F441505040C8F7881B990BC7
:1033A0000895FB01DC0101900D920020E1F70895E2
:1033B0000E944B1AA59F900DB49F900DA49F800D65
:1033C000911D11240895B7FF0C94D8190E94D819A3
:1033D000821B930B0895A1E21A2EAA1BBB1BFD01B1
:1033E0000DC0AA1FBB1FEE1FFF1FA217B307E407E4
:1033F000F50720F0A21BB30BE40BF50B661F771F3C
:10340000881F991F1A9469F760957095809590951B
:103410009B01AC01BD01CF010895052E97FB16F469
:10342000009407D057FD0DD00E94EB1907FC09D07E
:103430007EF490958095709561957F4F8F4F9F4F4B
:10344000089550954095309521953F4F4F4F5F4FD0
:1034500008952A88398848885F846E847D848C84A6
:103460009B84AA84B984C884DF80EE80FD800C81AF
:103470001B81AA81B981CE0FD11D0FB6F894DEBF92
:103480000FBECDBFED0108956927962769277827DC
:10349000872778270895A29FB001B39FC001A39FFB
:1034A00001D0B29F700D811D1124911D0895EE0F62
:0E34B000FF1F0590F491E02D0994F894FFCFD2
:1034BE0000001505200001000000DEADBEEFFEEDA0
:1034CE0000044661696C656420746F20636F6E66DC
:1034DE0069677572652045746865726E65742075CE
:1034EE0073696E67204448435000636F6E6E656368
:1034FE0074656400474554202F646F6F722F312F0F
:10350E006C6973742F696E6465782E6A736F6E00C2
:10351E00636F6E6E656374696F6E206661696C654C
:10352E0064007265636F6E6E656374696E672E2ECE
:10353E002E00646973636F6E6E656374696E672EB9
:10354E000043686172506F732069733A2000436FB5
:10355E0064652069733A2E2E2E0062796500000094
:10356E000000C402CD04610290027402B202000097
:10357E0000004304000000000E06910686066B064E
:10358E00430624069607AF06670653072F073B062A
:10359E0000000000F4087F09F00855091C090A090B
:1035AE00050AA1099909540A9509B6093609D508DB
:0C35BE00DC08EC0857495A6E65740000E8
:00000001FF
